{
  "transactions": [
    {
      "hash": "0x39cf16cf2aaa0bdd7fe830d024446b76d7b152635c48fb733b33857825af867f",
      "transactionType": "CALL",
      "contractName": null,
      "contractAddress": "0x0409159ed86528a5e86c74fc5697c67f15f5940f",
      "function": "setMaxPlotsPerHarvest(uint16)",
      "arguments": [
        "12"
      ],
      "transaction": {
        "from": "0x1c79f0bbe94ce84a3052bcea50fef817765d53b1",
        "to": "0x0409159ed86528a5e86c74fc5697c67f15f5940f",
        "gas": "0xbc18",
        "value": "0x0",
        "input": "0x548e4677000000000000000000000000000000000000000000000000000000000000000c",
        "nonce": "0x6d",
        "chainId": "0x14a34"
      },
      "additionalContracts": [],
      "isFixedGasLimit": false
    },
    {
      "hash": "0xd900df13baae0ca2bb02fa5f7875e499164d09bea59249c64f3beba1a4f2a930",
      "transactionType": "CALL",
      "contractName": null,
      "contractAddress": "0x0409159ed86528a5e86c74fc5697c67f15f5940f",
      "function": "setXpRateLimitPerTx(uint256)",
      "arguments": [
        "1200"
      ],
      "transaction": {
        "from": "0x1c79f0bbe94ce84a3052bcea50fef817765d53b1",
        "to": "0x0409159ed86528a5e86c74fc5697c67f15f5940f",
        "gas": "0xc7af",
        "value": "0x0",
        "input": "0x84b7b3c500000000000000000000000000000000000000000000000000000000000004b0",
        "nonce": "0x6e",
        "chainId": "0x14a34"
      },
      "additionalContracts": [],
      "isFixedGasLimit": false
    },
    {
      "hash": "0x0983febd907d24f6676503474f7c374414625686d362b54a0408a83948109851",
      "transactionType": "CALL",
      "contractName": null,
      "contractAddress": "0x0409159ed86528a5e86c74fc5697c67f15f5940f",
      "function": "setSeasonBonusBps(uint16)",
      "arguments": [
        "1000"
      ],
      "transaction": {
        "from": "0x1c79f0bbe94ce84a3052bcea50fef817765d53b1",
        "to": "0x0409159ed86528a5e86c74fc5697c67f15f5940f",
        "gas": "0xbb5f",
        "value": "0x0",
        "input": "0x34d42ef800000000000000000000000000000000000000000000000000000000000003e8",
        "nonce": "0x6f",
        "chainId": "0x14a34"
      },
      "additionalContracts": [],
      "isFixedGasLimit": false
    },
    {
      "hash": "0x7d7d0cba024984fa783bc18c85ffb5d941f155426bea6966d03cb51f3790e4e7",
      "transactionType": "CALL",
      "contractName": null,
      "contractAddress": "0x0409159ed86528a5e86c74fc5697c67f15f5940f",
      "function": "setMarketplaceFeeBps(uint16)",
      "arguments": [
        "250"
      ],
      "transaction": {
        "from": "0x1c79f0bbe94ce84a3052bcea50fef817765d53b1",
        "to": "0x0409159ed86528a5e86c74fc5697c67f15f5940f",
        "gas": "0xb6eb",
        "value": "0x0",
        "input": "0x45f5b43c00000000000000000000000000000000000000000000000000000000000000fa",
        "nonce": "0x70",
        "chainId": "0x14a34"
      },
      "additionalContracts": [],
      "isFixedGasLimit": false
    },
    {
      "hash": "0xe48d66331ab0ba8bb0d4cdc5c439fafb0aa0362b6f6b743203ecb38818a848c0",
      "transactionType": "CALL",
      "contractName": null,
      "contractAddress": "0x0409159ed86528a5e86c74fc5697c67f15f5940f",
      "function": "setTreasury(address)",
      "arguments": [
        "0xb2bb3E793a83Aa99c77De71d3a211cFcc0b601E2"
      ],
      "transaction": {
        "from": "0x1c79f0bbe94ce84a3052bcea50fef817765d53b1",
        "to": "0x0409159ed86528a5e86c74fc5697c67f15f5940f",
        "gas": "0xb326",
        "value": "0x0",
        "input": "0xf0f44260000000000000000000000000b2bb3e793a83aa99c77de71d3a211cfcc0b601e2",
        "nonce": "0x71",
        "chainId": "0x14a34"
      },
      "additionalContracts": [],
      "isFixedGasLimit": false
    },
    {
      "hash": "0x3659b6206618e7f2c186beb668f4f1cadf502850c8fd9d386c9e4d20f6fd9525",
      "transactionType": "CALL",
      "contractName": null,
      "contractAddress": "0x0409159ed86528a5e86c74fc5697c67f15f5940f",
      "function": "setSeedConfig(uint256,uint32,uint32)",
      "arguments": [
        "100",
        "30",
        "3600"
      ],
      "transaction": {
        "from": "0x1c79f0bbe94ce84a3052bcea50fef817765d53b1",
        "to": "0x0409159ed86528a5e86c74fc5697c67f15f5940f",
        "gas": "0x1956e",
        "value": "0x0",
        "input": "0x23d13d7b0000000000000000000000000000000000000000000000000000000000000064000000000000000000000000000000000000000000000000000000000000001e0000000000000000000000000000000000000000000000000000000000000e10",
        "nonce": "0x72",
        "chainId": "0x14a34"
      },
      "additionalContracts": [],
      "isFixedGasLimit": false
    },
    {
      "hash": "0x73a7780c1e7133b9a4dd7294f355728ebe0baf423a1b94d99c5eda4949b0bb1b",
      "transactionType": "CALL",
      "contractName": null,
      "contractAddress": "0x0409159ed86528a5e86c74fc5697c67f15f5940f",
      "function": "setShopItemConfig(bytes32,uint128,bool)",
      "arguments": [
        "0x23b7691ca26beb6f8f02d6f1d8211b91aa524cbeaac06b707d1134147b4c551a",
        "100000000000000",
        "true"
      ],
      "transaction": {
        "from": "0x1c79f0bbe94ce84a3052bcea50fef817765d53b1",
        "to": "0x0409159ed86528a5e86c74fc5697c67f15f5940f",
        "gas": "0x198d4",
        "value": "0x0",
        "input": "0x42c5aa3223b7691ca26beb6f8f02d6f1d8211b91aa524cbeaac06b707d1134147b4c551a00000000000000000000000000000000000000000000000000005af3107a40000000000000000000000000000000000000000000000000000000000000000001",
        "nonce": "0x73",
        "chainId": "0x14a34"
      },
      "additionalContracts": [],
      "isFixedGasLimit": false
    },
    {
      "hash": "0x4952af118b530af999e99b5361330c2959068b2128094b9d030c71fe4af907bc",
      "transactionType": "CALL",
      "contractName": null,
      "contractAddress": "0x0409159ed86528a5e86c74fc5697c67f15f5940f",
      "function": "setSeedConfig(uint256,uint32,uint32)",
      "arguments": [
        "101",
        "70",
        "7200"
      ],
      "transaction": {
        "from": "0x1c79f0bbe94ce84a3052bcea50fef817765d53b1",
        "to": "0x0409159ed86528a5e86c74fc5697c67f15f5940f",
        "gas": "0x1956e",
        "value": "0x0",
        "input": "0x23d13d7b000000000000000000000000000000000000000000000000000000000000006500000000000000000000000000000000000000000000000000000000000000460000000000000000000000000000000000000000000000000000000000001c20",
        "nonce": "0x74",
        "chainId": "0x14a34"
      },
      "additionalContracts": [],
      "isFixedGasLimit": false
    },
    {
      "hash": "0xca1ef570863c493e573805f58310884931e275c3a78254a18c2b6d18f94557cb",
      "transactionType": "CALL",
      "contractName": null,
      "contractAddress": "0x0409159ed86528a5e86c74fc5697c67f15f5940f",
      "function": "setShopItemConfig(bytes32,uint128,bool)",
      "arguments": [
        "0xcb971ff18676655778682634295c921e8dd2de645c49f2f51458e2e150c751d9",
        "200000000000000",
        "true"
      ],
      "transaction": {
        "from": "0x1c79f0bbe94ce84a3052bcea50fef817765d53b1",
        "to": "0x0409159ed86528a5e86c74fc5697c67f15f5940f",
        "gas": "0x198d4",
        "value": "0x0",
        "input": "0x42c5aa32cb971ff18676655778682634295c921e8dd2de645c49f2f51458e2e150c751d90000000000000000000000000000000000000000000000000000b5e620f480000000000000000000000000000000000000000000000000000000000000000001",
        "nonce": "0x75",
        "chainId": "0x14a34"
      },
      "additionalContracts": [],
      "isFixedGasLimit": false
    },
    {
      "hash": "0x713faf97b65f592f3617db9ab4759d240965410f2ce5338fbf5612fbc0dc776a",
      "transactionType": "CALL",
      "contractName": null,
      "contractAddress": "0x0409159ed86528a5e86c74fc5697c67f15f5940f",
      "function": "setSeedConfig(uint256,uint32,uint32)",
      "arguments": [
        "102",
        "150",
        "14400"
      ],
      "transaction": {
        "from": "0x1c79f0bbe94ce84a3052bcea50fef817765d53b1",
        "to": "0x0409159ed86528a5e86c74fc5697c67f15f5940f",
        "gas": "0x1956e",
        "value": "0x0",
        "input": "0x23d13d7b000000000000000000000000000000000000000000000000000000000000006600000000000000000000000000000000000000000000000000000000000000960000000000000000000000000000000000000000000000000000000000003840",
        "nonce": "0x76",
        "chainId": "0x14a34"
      },
      "additionalContracts": [],
      "isFixedGasLimit": false
    },
    {
      "hash": "0x5d45e96e12ec9a5d06280d98c6ffd5dd067302a7116fd63a93dea475d1efe5b0",
      "transactionType": "CALL",
      "contractName": null,
      "contractAddress": "0x0409159ed86528a5e86c74fc5697c67f15f5940f",
      "function": "setShopItemConfig(bytes32,uint128,bool)",
      "arguments": [
        "0x6d08d6a78cafb7db4da6cc08cd18e745ca9eb30abf5ee9cd0d1a114f93c23fd8",
        "350000000000000",
        "true"
      ],
      "transaction": {
        "from": "0x1c79f0bbe94ce84a3052bcea50fef817765d53b1",
        "to": "0x0409159ed86528a5e86c74fc5697c67f15f5940f",
        "gas": "0x1b0f3",
        "value": "0x0",
        "input": "0x42c5aa326d08d6a78cafb7db4da6cc08cd18e745ca9eb30abf5ee9cd0d1a114f93c23fd800000000000000000000000000000000000000000000000000013e52b9abe0000000000000000000000000000000000000000000000000000000000000000001",
        "nonce": "0x77",
        "chainId": "0x14a34"
      },
      "additionalContracts": [],
      "isFixedGasLimit": false
    },
    {
      "hash": "0x9b0574a12941f99e89c9a19bd3ec6ffde4bb296718d1383a7164b50359342bf9",
      "transactionType": "CALL",
      "contractName": null,
      "contractAddress": "0x0409159ed86528a5e86c74fc5697c67f15f5940f",
      "function": "setToolSpeedBps(uint256,uint16)",
      "arguments": [
        "1",
        "0"
      ],
      "transaction": {
        "from": "0x1c79f0bbe94ce84a3052bcea50fef817765d53b1",
        "to": "0x0409159ed86528a5e86c74fc5697c67f15f5940f",
        "gas": "0xbdb4",
        "value": "0x0",
        "input": "0xa752428000000000000000000000000000000000000000000000000000000000000000010000000000000000000000000000000000000000000000000000000000000000",
        "nonce": "0x78",
        "chainId": "0x14a34"
      },
      "additionalContracts": [],
      "isFixedGasLimit": false
    },
    {
      "hash": "0xfd8b741a0eb55fe2f9eebfbd51759b1c0ecb0e3c4d490d0ecff49d01b2452a57",
      "transactionType": "CALL",
      "contractName": null,
      "contractAddress": "0x0409159ed86528a5e86c74fc5697c67f15f5940f",
      "function": "setShopItemConfig(bytes32,uint128,bool)",
      "arguments": [
        "0x05ccc8e6f08033233c11ba5a628b393174cd49cef4e43ab36c6ad2a4173cc08f",
        "1000000000000000",
        "true"
      ],
      "transaction": {
        "from": "0x1c79f0bbe94ce84a3052bcea50fef817765d53b1",
        "to": "0x0409159ed86528a5e86c74fc5697c67f15f5940f",
        "gas": "0xdd92",
        "value": "0x0",
        "input": "0x42c5aa3205ccc8e6f08033233c11ba5a628b393174cd49cef4e43ab36c6ad2a4173cc08f00000000000000000000000000000000000000000000000000038d7ea4c680000000000000000000000000000000000000000000000000000000000000000001",
        "nonce": "0x79",
        "chainId": "0x14a34"
      },
      "additionalContracts": [],
      "isFixedGasLimit": false
    },
    {
      "hash": "0x8c4d60fe4d1cafeccf52701730dba9cd36471206873592d86b2945e0e6a0135f",
      "transactionType": "CALL",
      "contractName": null,
      "contractAddress": "0x0409159ed86528a5e86c74fc5697c67f15f5940f",
      "function": "setToolSpeedBps(uint256,uint16)",
      "arguments": [
        "2",
        "5000"
      ],
      "transaction": {
        "from": "0x1c79f0bbe94ce84a3052bcea50fef817765d53b1",
        "to": "0x0409159ed86528a5e86c74fc5697c67f15f5940f",
        "gas": "0xccf1",
        "value": "0x0",
        "input": "0xa752428000000000000000000000000000000000000000000000000000000000000000020000000000000000000000000000000000000000000000000000000000001388",
        "nonce": "0x7a",
        "chainId": "0x14a34"
      },
      "additionalContracts": [],
      "isFixedGasLimit": false
    },
    {
      "hash": "0x4e46d5bd268debd36cc05eca6770942e6f227ed763b02a40d1496cb765d93414",
      "transactionType": "CALL",
      "contractName": null,
      "contractAddress": "0x0409159ed86528a5e86c74fc5697c67f15f5940f",
      "function": "setShopItemConfig(bytes32,uint128,bool)",
      "arguments": [
        "0x282a27a315626f9e51fcd79758385f6308e0ecfe72dac4e1a2d6c4aa5b42a735",
        "1500000000000000",
        "true"
      ],
      "transaction": {
        "from": "0x1c79f0bbe94ce84a3052bcea50fef817765d53b1",
        "to": "0x0409159ed86528a5e86c74fc5697c67f15f5940f",
        "gas": "0xdd92",
        "value": "0x0",
        "input": "0x42c5aa32282a27a315626f9e51fcd79758385f6308e0ecfe72dac4e1a2d6c4aa5b42a7350000000000000000000000000000000000000000000000000005543df729c0000000000000000000000000000000000000000000000000000000000000000001",
        "nonce": "0x7b",
        "chainId": "0x14a34"
      },
      "additionalContracts": [],
      "isFixedGasLimit": false
    },
    {
      "hash": "0xd69bef49db01b11b2e794ba5ca20bc6454df265827d1e27b03b874935241c454",
      "transactionType": "CALL",
      "contractName": null,
      "contractAddress": "0x0409159ed86528a5e86c74fc5697c67f15f5940f",
      "function": "setToolSpeedBps(uint256,uint16)",
      "arguments": [
        "3",
        "10000"
      ],
      "transaction": {
        "from": "0x1c79f0bbe94ce84a3052bcea50fef817765d53b1",
        "to": "0x0409159ed86528a5e86c74fc5697c67f15f5940f",
        "gas": "0xccf1",
        "value": "0x0",
        "input": "0xa752428000000000000000000000000000000000000000000000000000000000000000030000000000000000000000000000000000000000000000000000000000002710",
        "nonce": "0x7c",
        "chainId": "0x14a34"
      },
      "additionalContracts": [],
      "isFixedGasLimit": false
    },
    {
      "hash": "0xa9fc4189c00d202f4d333533430e94b50a56d5085f3552162b152fa25ea0310b",
      "transactionType": "CALL",
      "contractName": null,
      "contractAddress": "0x0409159ed86528a5e86c74fc5697c67f15f5940f",
      "function": "setShopItemConfig(bytes32,uint128,bool)",
      "arguments": [
        "0xaef116f81c7eb108af6dd09475c72cb47c94ff9aaab6a6802df27f96ce9ee4ac",
        "2000000000000000",
        "true"
      ],
      "transaction": {
        "from": "0x1c79f0bbe94ce84a3052bcea50fef817765d53b1",
        "to": "0x0409159ed86528a5e86c74fc5697c67f15f5940f",
        "gas": "0xd132",
        "value": "0x0",
        "input": "0x42c5aa32aef116f81c7eb108af6dd09475c72cb47c94ff9aaab6a6802df27f96ce9ee4ac00000000000000000000000000000000000000000000000000071afd498d00000000000000000000000000000000000000000000000000000000000000000001",
        "nonce": "0x7d",
        "chainId": "0x14a34"
      },
      "additionalContracts": [],
      "isFixedGasLimit": false
    },
    {
      "hash": "0x19889c2f26a47042c2f7685fc7d3fba2f98f043d57ca968d6b6ecb93e362b451",
      "transactionType": "CALL",
      "contractName": null,
      "contractAddress": "0x0409159ed86528a5e86c74fc5697c67f15f5940f",
      "function": "setShopItemConfig(bytes32,uint128,bool)",
      "arguments": [
        "0x9726fc1f1bc77e15a34e697ec27a2adbafdf5c7516b53310e76039bb54d052b8",
        "100000000000000",
        "true"
      ],
      "transaction": {
        "from": "0x1c79f0bbe94ce84a3052bcea50fef817765d53b1",
        "to": "0x0409159ed86528a5e86c74fc5697c67f15f5940f",
        "gas": "0xd132",
        "value": "0x0",
        "input": "0x42c5aa329726fc1f1bc77e15a34e697ec27a2adbafdf5c7516b53310e76039bb54d052b800000000000000000000000000000000000000000000000000005af3107a40000000000000000000000000000000000000000000000000000000000000000001",
        "nonce": "0x7e",
        "chainId": "0x14a34"
      },
      "additionalContracts": [],
      "isFixedGasLimit": false
    },
    {
      "hash": "0xe36502b5ff7764282df7b247f34405d17d5d6f0797da95f63a653838916ed1fd",
      "transactionType": "CALL",
      "contractName": null,
      "contractAddress": "0x0409159ed86528a5e86c74fc5697c67f15f5940f",
      "function": "setShopItemConfig(bytes32,uint128,bool)",
      "arguments": [
        "0x1020419fb03705853f9fe05e8793f56d01ac5bae0d94113f65760fb042498b6c",
        "2000000000000000",
        "true"
      ],
      "transaction": {
        "from": "0x1c79f0bbe94ce84a3052bcea50fef817765d53b1",
        "to": "0x0409159ed86528a5e86c74fc5697c67f15f5940f",
        "gas": "0xd132",
        "value": "0x0",
        "input": "0x42c5aa321020419fb03705853f9fe05e8793f56d01ac5bae0d94113f65760fb042498b6c00000000000000000000000000000000000000000000000000071afd498d00000000000000000000000000000000000000000000000000000000000000000001",
        "nonce": "0x7f",
        "chainId": "0x14a34"
      },
      "additionalContracts": [],
      "isFixedGasLimit": false
    },
    {
      "hash": "0xb1b14c6b36edde7facee0f417a96c92977476423626c73bb5d9ec82560c4e8c0",
      "transactionType": "CALL",
      "contractName": null,
      "contractAddress": "0x8ffb4e6cc0c1b28eb4b355bbedec92c05055ec6f",
      "function": "grantRole(bytes32,address)",
      "arguments": [
        "0x9f2df0fed2c77648de5860a4cc508cd0818c85b8b8a1ab4ceeef8d981c8956a6",
        "0x83d44B8867f270a34CBb856fa402417b5A9eCd82"
      ],
      "transaction": {
        "from": "0x1c79f0bbe94ce84a3052bcea50fef817765d53b1",
        "to": "0x8ffb4e6cc0c1b28eb4b355bbedec92c05055ec6f",
        "gas": "0xc29e",
        "value": "0x0",
        "input": "0x2f2ff15d9f2df0fed2c77648de5860a4cc508cd0818c85b8b8a1ab4ceeef8d981c8956a600000000000000000000000083d44b8867f270a34cbb856fa402417b5a9ecd82",
        "nonce": "0x80",
        "chainId": "0x14a34"
      },
      "additionalContracts": [],
      "isFixedGasLimit": false
    },
    {
      "hash": "0x39261de3885ce3f49f528ddc4f38df4b53c79c28aae1b057ece68dacab6d9e64",
      "transactionType": "CALL",
      "contractName": null,
      "contractAddress": "0x8ffb4e6cc0c1b28eb4b355bbedec92c05055ec6f",
      "function": "grantRole(bytes32,address)",
      "arguments": [
        "0x3c11d16cbaffd01df69ce1c404f6340ee057498f5f00246190ea54220576a848",
        "0xb231b2C5ef69AD544a73f83bF92f57bc1Eb5b217"
      ],
      "transaction": {
        "from": "0x1c79f0bbe94ce84a3052bcea50fef817765d53b1",
        "to": "0x8ffb4e6cc0c1b28eb4b355bbedec92c05055ec6f",
        "gas": "0xb7bd",
        "value": "0x0",
        "input": "0x2f2ff15d3c11d16cbaffd01df69ce1c404f6340ee057498f5f00246190ea54220576a848000000000000000000000000b231b2c5ef69ad544a73f83bf92f57bc1eb5b217",
        "nonce": "0x81",
        "chainId": "0x14a34"
      },
      "additionalContracts": [],
      "isFixedGasLimit": false
    },
    {
      "hash": "0x21d53d5db0cb2e3b7c42f361160bb4c08a514f28ca54ad99ecc91e090e751731",
      "transactionType": "CALL",
      "contractName": null,
      "contractAddress": "0x43a2253fb314921a26a3376c1de1413b7a768688",
      "function": "grantRole(bytes32,address)",
      "arguments": [
        "0x9f2df0fed2c77648de5860a4cc508cd0818c85b8b8a1ab4ceeef8d981c8956a6",
        "0x83d44B8867f270a34CBb856fa402417b5A9eCd82"
      ],
      "transaction": {
        "from": "0x1c79f0bbe94ce84a3052bcea50fef817765d53b1",
        "to": "0x43a2253fb314921a26a3376c1de1413b7a768688",
        "gas": "0xb77b",
        "value": "0x0",
        "input": "0x2f2ff15d9f2df0fed2c77648de5860a4cc508cd0818c85b8b8a1ab4ceeef8d981c8956a600000000000000000000000083d44b8867f270a34cbb856fa402417b5a9ecd82",
        "nonce": "0x82",
        "chainId": "0x14a34"
      },
      "additionalContracts": [],
      "isFixedGasLimit": false
    },
    {
      "hash": "0xc7c98b0e4f2879cfc4db91bae0eed32548d8ea3daac8b41298f0787a2f0c11eb",
      "transactionType": "CALL",
      "contractName": null,
      "contractAddress": "0xb231b2c5ef69ad544a73f83bf92f57bc1eb5b217",
      "function": "grantRole(bytes32,address)",
      "arguments": [
        "0x241ecf16d79d0f8dbfb92cbc07fe17840425976cf0667f022fe9877caa831b08",
        "0x31E88A9D6c3EE6c328344f6124E5B060FaA620C9"
      ],
      "transaction": {
        "from": "0x1c79f0bbe94ce84a3052bcea50fef817765d53b1",
        "to": "0xb231b2c5ef69ad544a73f83bf92f57bc1eb5b217",
        "gas": "0x1401e",
        "value": "0x0",
        "input": "0x2f2ff15d241ecf16d79d0f8dbfb92cbc07fe17840425976cf0667f022fe9877caa831b0800000000000000000000000031e88a9d6c3ee6c328344f6124e5b060faa620c9",
        "nonce": "0x83",
        "chainId": "0x14a34"
      },
      "additionalContracts": [],
      "isFixedGasLimit": false
    },
    {
      "hash": "0x1b71ed447e851cd54cc9b03e643284c94a63aff62538fc757a04c6fe1edf81c6",
      "transactionType": "CALL",
      "contractName": null,
      "contractAddress": "0x8ffb4e6cc0c1b28eb4b355bbedec92c05055ec6f",
      "function": "grantRole(bytes32,address)",
      "arguments": [
        "0x9f2df0fed2c77648de5860a4cc508cd0818c85b8b8a1ab4ceeef8d981c8956a6",
        "0x31E88A9D6c3EE6c328344f6124E5B060FaA620C9"
      ],
      "transaction": {
        "from": "0x1c79f0bbe94ce84a3052bcea50fef817765d53b1",
        "to": "0x8ffb4e6cc0c1b28eb4b355bbedec92c05055ec6f",
        "gas": "0x1414e",
        "value": "0x0",
        "input": "0x2f2ff15d9f2df0fed2c77648de5860a4cc508cd0818c85b8b8a1ab4ceeef8d981c8956a600000000000000000000000031e88a9d6c3ee6c328344f6124e5b060faa620c9",
        "nonce": "0x84",
        "chainId": "0x14a34"
      },
      "additionalContracts": [],
      "isFixedGasLimit": false
    },
    {
      "hash": "0x44fb9d6971081020a6358db979326e68c3a810b29ff025de3bf16b9637cb2804",
      "transactionType": "CALL",
      "contractName": null,
      "contractAddress": "0x8ffb4e6cc0c1b28eb4b355bbedec92c05055ec6f",
      "function": "grantRole(bytes32,address)",
      "arguments": [
        "0x3c11d16cbaffd01df69ce1c404f6340ee057498f5f00246190ea54220576a848",
        "0x31E88A9D6c3EE6c328344f6124E5B060FaA620C9"
      ],
      "transaction": {
        "from": "0x1c79f0bbe94ce84a3052bcea50fef817765d53b1",
        "to": "0x8ffb4e6cc0c1b28eb4b355bbedec92c05055ec6f",
        "gas": "0x12f64",
        "value": "0x0",
        "input": "0x2f2ff15d3c11d16cbaffd01df69ce1c404f6340ee057498f5f00246190ea54220576a84800000000000000000000000031e88a9d6c3ee6c328344f6124e5b060faa620c9",
        "nonce": "0x85",
        "chainId": "0x14a34"
      },
      "additionalContracts": [],
      "isFixedGasLimit": false
    },
    {
      "hash": "0x4c29fc5c9824be759c37afbf96642199fb7de184544897dade628c1a1b4b1a6c",
      "transactionType": "CALL",
      "contractName": null,
      "contractAddress": "0x43a2253fb314921a26a3376c1de1413b7a768688",
      "function": "grantRole(bytes32,address)",
      "arguments": [
        "0x9f2df0fed2c77648de5860a4cc508cd0818c85b8b8a1ab4ceeef8d981c8956a6",
        "0x31E88A9D6c3EE6c328344f6124E5B060FaA620C9"
      ],
      "transaction": {
        "from": "0x1c79f0bbe94ce84a3052bcea50fef817765d53b1",
        "to": "0x43a2253fb314921a26a3376c1de1413b7a768688",
        "gas": "0x12f08",
        "value": "0x0",
        "input": "0x2f2ff15d9f2df0fed2c77648de5860a4cc508cd0818c85b8b8a1ab4ceeef8d981c8956a600000000000000000000000031e88a9d6c3ee6c328344f6124e5b060faa620c9",
        "nonce": "0x86",
        "chainId": "0x14a34"
      },
      "additionalContracts": [],
      "isFixedGasLimit": false
    },
    {
      "hash": "0x7e79a2e1d2aecc87e71de2d04be0f37b718acdbe774dc1444a3fba3ad700cf0e",
      "transactionType": "CALL",
      "contractName": null,
      "contractAddress": "0x83d44b8867f270a34cbb856fa402417b5a9ecd82",
      "function": "grantRole(bytes32,address)",
      "arguments": [
        "0x0000000000000000000000000000000000000000000000000000000000000000",
        "0x31E88A9D6c3EE6c328344f6124E5B060FaA620C9"
      ],
      "transaction": {
        "from": "0x1c79f0bbe94ce84a3052bcea50fef817765d53b1",
        "to": "0x83d44b8867f270a34cbb856fa402417b5a9ecd82",
        "gas": "0x12c39",
        "value": "0x0",
        "input": "0x2f2ff15d000000000000000000000000000000000000000000000000000000000000000000000000000000000000000031e88a9d6c3ee6c328344f6124e5b060faa620c9",
        "nonce": "0x87",
        "chainId": "0x14a34"
      },
      "additionalContracts": [],
      "isFixedGasLimit": false
    }
  ],
  "receipts": [
    {
      "status": "0x1",
      "cumulativeGasUsed": "0x14e104",
      "logs": [
        {
          "address": "0x0409159ed86528a5e86c74fc5697c67f15f5940f",
          "topics": [
            "0x17779ee1dd9074aeaed0d0488b344f60b165c081ca2ff8c5b397411683df759c"
          ],
          "data": "0x000000000000000000000000000000000000000000000000000000000000000c",
          "blockHash": "0x8d405d30fb6beb106f3f4f82fd2918e4a11e49760c9a7557cb1dba1ea0a3aa3e",
          "blockNumber": "0x1efa94e",
          "blockTimestamp": "0x68f2b17c",
          "transactionHash": "0x39cf16cf2aaa0bdd7fe830d024446b76d7b152635c48fb733b33857825af867f",
          "transactionIndex": "0x16",
          "logIndex": "0x22",
          "removed": false
        }
      ],
      "logsBloom": "0x00000010000000000000000000000000000000000000000000000000000000000000000000000000000000000000000000000000000000000002000000000000000000000000000000000000000000000000000000000000000000000000000000000000000000000000000000000000000004000000000000000000000000000000000000000000000000000000000000000000000000000000000000000000000000000000200000000000000000000000000000000000000000000000000000000000000000000000000000000000000000000000000000000000000000000000000000000000080000000000000000000000000000000080000000000000",
      "type": "0x2",
      "transactionHash": "0x39cf16cf2aaa0bdd7fe830d024446b76d7b152635c48fb733b33857825af867f",
      "transactionIndex": "0x16",
      "blockHash": "0x8d405d30fb6beb106f3f4f82fd2918e4a11e49760c9a7557cb1dba1ea0a3aa3e",
      "blockNumber": "0x1efa94e",
      "gasUsed": "0x882e",
      "effectiveGasPrice": "0xf428a",
      "from": "0x1c79f0bbe94ce84a3052bcea50fef817765d53b1",
      "to": "0x0409159ed86528a5e86c74fc5697c67f15f5940f",
      "contractAddress": null,
      "l1BaseFeeScalar": "0x44d",
      "l1BlobBaseFee": "0x1",
      "l1BlobBaseFeeScalar": "0xa118b",
      "l1Fee": "0x55",
      "l1GasPrice": "0xb",
      "l1GasUsed": "0x640"
    },
    {
      "status": "0x1",
      "cumulativeGasUsed": "0x15698e",
      "logs": [
        {
          "address": "0x0409159ed86528a5e86c74fc5697c67f15f5940f",
          "topics": [
            "0xa0b9539af4299f339fd436bc5dc1d268cc82179e80293e9fab18e05515994ebe"
          ],
          "data": "0x00000000000000000000000000000000000000000000000000000000000004b0",
          "blockHash": "0x8d405d30fb6beb106f3f4f82fd2918e4a11e49760c9a7557cb1dba1ea0a3aa3e",
          "blockNumber": "0x1efa94e",
          "blockTimestamp": "0x68f2b17c",
          "transactionHash": "0xd900df13baae0ca2bb02fa5f7875e499164d09bea59249c64f3beba1a4f2a930",
          "transactionIndex": "0x17",
          "logIndex": "0x23",
          "removed": false
        }
      ],
      "logsBloom": "0x00000000000000000000000000000000000000000000000000000000000000000000000000000000000000000000000000000000000000000000000000000000000000000000000000000000000000000000000000000000000000000000000000000000000000000000000000000000000000000000000000000000000000000000000000000000000000000000000000000000000000000000000000000000000000000000200000000000000000000000080000000000000000000000000000000000000000000004000000000000000000000000000000000000000000000000000000000000080000000000000000000000100000000080000000000000",
      "type": "0x2",
      "transactionHash": "0xd900df13baae0ca2bb02fa5f7875e499164d09bea59249c64f3beba1a4f2a930",
      "transactionIndex": "0x17",
      "blockHash": "0x8d405d30fb6beb106f3f4f82fd2918e4a11e49760c9a7557cb1dba1ea0a3aa3e",
      "blockNumber": "0x1efa94e",
      "gasUsed": "0x888a",
      "effectiveGasPrice": "0xf428a",
      "from": "0x1c79f0bbe94ce84a3052bcea50fef817765d53b1",
      "to": "0x0409159ed86528a5e86c74fc5697c67f15f5940f",
      "contractAddress": null,
      "l1BaseFeeScalar": "0x44d",
      "l1BlobBaseFee": "0x1",
      "l1BlobBaseFeeScalar": "0xa118b",
      "l1Fee": "0x55",
      "l1GasPrice": "0xb",
      "l1GasUsed": "0x640"
    },
    {
      "status": "0x1",
      "cumulativeGasUsed": "0x15f136",
      "logs": [
        {
          "address": "0x0409159ed86528a5e86c74fc5697c67f15f5940f",
          "topics": [
            "0xd6d759df334b6db70de9f9e533b73611556802010a882a7e8205b7f39933c527"
          ],
          "data": "0x00000000000000000000000000000000000000000000000000000000000003e8",
          "blockHash": "0x8d405d30fb6beb106f3f4f82fd2918e4a11e49760c9a7557cb1dba1ea0a3aa3e",
          "blockNumber": "0x1efa94e",
          "blockTimestamp": "0x68f2b17c",
          "transactionHash": "0x0983febd907d24f6676503474f7c374414625686d362b54a0408a83948109851",
          "transactionIndex": "0x18",
          "logIndex": "0x24",
          "removed": false
        }
      ],
      "logsBloom": "0x00000000000000000000000000000000000000000000000000000000000000000000000000000000000000000000000000000000000000000000000000000000000000000000000000000000000000000000000000000000000000000000000000000000000000000000000000000000000000000000000000000000000000000000000000000000000000000020000000000000000000000000000000000000000000000000200000000000000000000000000000000000000000000000000000000002000000000000000000000000000000000000000000000000000000000000000000000000080000040000000000000000000000000080000000000000",
      "type": "0x2",
      "transactionHash": "0x0983febd907d24f6676503474f7c374414625686d362b54a0408a83948109851",
      "transactionIndex": "0x18",
      "blockHash": "0x8d405d30fb6beb106f3f4f82fd2918e4a11e49760c9a7557cb1dba1ea0a3aa3e",
      "blockNumber": "0x1efa94e",
      "gasUsed": "0x87a8",
      "effectiveGasPrice": "0xf428a",
      "from": "0x1c79f0bbe94ce84a3052bcea50fef817765d53b1",
      "to": "0x0409159ed86528a5e86c74fc5697c67f15f5940f",
      "contractAddress": null,
      "l1BaseFeeScalar": "0x44d",
      "l1BlobBaseFee": "0x1",
      "l1BlobBaseFeeScalar": "0xa118b",
      "l1Fee": "0x55",
      "l1GasPrice": "0xb",
      "l1GasUsed": "0x640"
    },
    {
      "status": "0x1",
      "cumulativeGasUsed": "0x166e49",
      "logs": [
        {
          "address": "0x0409159ed86528a5e86c74fc5697c67f15f5940f",
          "topics": [
            "0x840454eea1621f624addcf559d27fd62d5d704f82b4ade53a3a9c64ffb9d32a6"
          ],
          "data": "0x00000000000000000000000000000000000000000000000000000000000000fa",
          "blockHash": "0x8d405d30fb6beb106f3f4f82fd2918e4a11e49760c9a7557cb1dba1ea0a3aa3e",
          "blockNumber": "0x1efa94e",
          "blockTimestamp": "0x68f2b17c",
          "transactionHash": "0x7d7d0cba024984fa783bc18c85ffb5d941f155426bea6966d03cb51f3790e4e7",
          "transactionIndex": "0x19",
          "logIndex": "0x25",
          "removed": false
        }
      ],
      "logsBloom": "0x00000000000000000000000000000000000000000000000000000000000000000000000000000000000000000000000000000000000000000000000000000000000000000000000000000001000000000000000000000000000000000000800000000000000000000000000000000000000000000000000000000000000000000001000000000000000000000000000000000000000000000000000000000000000000000000200000000000000000000000000000000000000000000000000000000000000000000000000000000000000000000000000000000000000000000000000000000000080000000000000000000000000000000080000000000000",
      "type": "0x2",
      "transactionHash": "0x7d7d0cba024984fa783bc18c85ffb5d941f155426bea6966d03cb51f3790e4e7",
      "transactionIndex": "0x19",
      "blockHash": "0x8d405d30fb6beb106f3f4f82fd2918e4a11e49760c9a7557cb1dba1ea0a3aa3e",
      "blockNumber": "0x1efa94e",
      "gasUsed": "0x7d13",
      "effectiveGasPrice": "0xf428a",
      "from": "0x1c79f0bbe94ce84a3052bcea50fef817765d53b1",
      "to": "0x0409159ed86528a5e86c74fc5697c67f15f5940f",
      "contractAddress": null,
      "l1BaseFeeScalar": "0x44d",
      "l1BlobBaseFee": "0x1",
      "l1BlobBaseFeeScalar": "0xa118b",
      "l1Fee": "0x55",
      "l1GasPrice": "0xb",
      "l1GasUsed": "0x640"
    },
    {
      "status": "0x1",
      "cumulativeGasUsed": "0x16effd",
      "logs": [
        {
          "address": "0x0409159ed86528a5e86c74fc5697c67f15f5940f",
          "topics": [
            "0x4ab5be82436d353e61ca18726e984e561f5c1cc7c6d38b29d2553c790434705a",
            "0x000000000000000000000000b2bb3e793a83aa99c77de71d3a211cfcc0b601e2",
            "0x000000000000000000000000b2bb3e793a83aa99c77de71d3a211cfcc0b601e2"
          ],
          "data": "0x",
          "blockHash": "0x8d405d30fb6beb106f3f4f82fd2918e4a11e49760c9a7557cb1dba1ea0a3aa3e",
          "blockNumber": "0x1efa94e",
          "blockTimestamp": "0x68f2b17c",
          "transactionHash": "0xe48d66331ab0ba8bb0d4cdc5c439fafb0aa0362b6f6b743203ecb38818a848c0",
          "transactionIndex": "0x1a",
          "logIndex": "0x26",
          "removed": false
        }
      ],
      "logsBloom": "0x00000000000000000000000000000000000000000000000020000000000000000000000000000008000000000000000000000000000000000000000000000000000000000000000000000000000000000000000000000000000000000000000000000000000000000000000000000000000000000000000000000000000000000000008000000000000000000000200000000000000000000000000000000000000000000000200000000000000000000000000000000000000000000000000000000000000000000000000000000000000000000000000000000000000000000200000000000000080000000000800000000000000000000080000000000000",
      "type": "0x2",
      "transactionHash": "0xe48d66331ab0ba8bb0d4cdc5c439fafb0aa0362b6f6b743203ecb38818a848c0",
      "transactionIndex": "0x1a",
      "blockHash": "0x8d405d30fb6beb106f3f4f82fd2918e4a11e49760c9a7557cb1dba1ea0a3aa3e",
      "blockNumber": "0x1efa94e",
      "gasUsed": "0x81b4",
      "effectiveGasPrice": "0xf428a",
      "from": "0x1c79f0bbe94ce84a3052bcea50fef817765d53b1",
      "to": "0x0409159ed86528a5e86c74fc5697c67f15f5940f",
      "contractAddress": null,
      "l1BaseFeeScalar": "0x44d",
      "l1BlobBaseFee": "0x1",
      "l1BlobBaseFeeScalar": "0xa118b",
      "l1Fee": "0x55",
      "l1GasPrice": "0xb",
      "l1GasUsed": "0x640"
    },
    {
      "status": "0x1",
      "cumulativeGasUsed": "0x181584",
      "logs": [
        {
          "address": "0x0409159ed86528a5e86c74fc5697c67f15f5940f",
          "topics": [
            "0xaabd903a35d2a0d4769cc1dc96a33fb2ef3fdf7217a9620006cbf8895563c548",
            "0x0000000000000000000000000000000000000000000000000000000000000064"
          ],
          "data": "0x000000000000000000000000000000000000000000000000000000000000001e0000000000000000000000000000000000000000000000000000000000000e10",
          "blockHash": "0x8d405d30fb6beb106f3f4f82fd2918e4a11e49760c9a7557cb1dba1ea0a3aa3e",
          "blockNumber": "0x1efa94e",
          "blockTimestamp": "0x68f2b17c",
          "transactionHash": "0x3659b6206618e7f2c186beb668f4f1cadf502850c8fd9d386c9e4d20f6fd9525",
          "transactionIndex": "0x1b",
          "logIndex": "0x27",
          "removed": false
        }
      ],
      "logsBloom": "0x00000000000000000000000000000000000000000000000000000000000000000000000000000000000000000000000000010000000000000000000000080000000000000000000000000000000000000000000000000000000000000000000000000000000000000000000000000000000000000000000002000000000000000000000000000000000000000000000000000000000000000000000000000000000000000000200000000000000000000000000000000000000000000000000000000000000000000000000000000000000000000000000000000000000000000000000000000000080000002000000000000000000000008080000000010000",
      "type": "0x2",
      "transactionHash": "0x3659b6206618e7f2c186beb668f4f1cadf502850c8fd9d386c9e4d20f6fd9525",
      "transactionIndex": "0x1b",
      "blockHash": "0x8d405d30fb6beb106f3f4f82fd2918e4a11e49760c9a7557cb1dba1ea0a3aa3e",
      "blockNumber": "0x1efa94e",
      "gasUsed": "0x12587",
      "effectiveGasPrice": "0xf428a",
      "from": "0x1c79f0bbe94ce84a3052bcea50fef817765d53b1",
      "to": "0x0409159ed86528a5e86c74fc5697c67f15f5940f",
      "contractAddress": null,
      "l1BaseFeeScalar": "0x44d",
      "l1BlobBaseFee": "0x1",
      "l1BlobBaseFeeScalar": "0xa118b",
      "l1Fee": "0x55",
      "l1GasPrice": "0xb",
      "l1GasUsed": "0x640"
    },
    {
      "status": "0x1",
      "cumulativeGasUsed": "0x193d81",
      "logs": [
        {
          "address": "0x0409159ed86528a5e86c74fc5697c67f15f5940f",
          "topics": [
            "0xaedf9dbec5cd179aa42373bacf3b088971d0c7674fc6ebc755ff46fe27b5539b",
            "0x23b7691ca26beb6f8f02d6f1d8211b91aa524cbeaac06b707d1134147b4c551a"
          ],
          "data": "0x00000000000000000000000000000000000000000000000000005af3107a40000000000000000000000000000000000000000000000000000000000000000001",
          "blockHash": "0x8d405d30fb6beb106f3f4f82fd2918e4a11e49760c9a7557cb1dba1ea0a3aa3e",
          "blockNumber": "0x1efa94e",
          "blockTimestamp": "0x68f2b17c",
          "transactionHash": "0x73a7780c1e7133b9a4dd7294f355728ebe0baf423a1b94d99c5eda4949b0bb1b",
          "transactionIndex": "0x1c",
          "logIndex": "0x28",
          "removed": false
        }
      ],
      "logsBloom": "0x00000000000000000000000000000000000000000000000000000000000000000000000010000000000000000000000001000000000200000000000000000000000000000000000000000000000000008000000000000000000000000000000000000000000000000000000000000000000000000000000000000000000000000000000000000000000000000000000000000000100000000000000000000000000000000000210000000000000000000000000000000000000000000000000000000000000000000000000000000000000000000000000000000000000000000000000000000000080000000000000000000000000000000080000000000000",
      "type": "0x2",
      "transactionHash": "0x73a7780c1e7133b9a4dd7294f355728ebe0baf423a1b94d99c5eda4949b0bb1b",
      "transactionIndex": "0x1c",
      "blockHash": "0x8d405d30fb6beb106f3f4f82fd2918e4a11e49760c9a7557cb1dba1ea0a3aa3e",
      "blockNumber": "0x1efa94e",
      "gasUsed": "0x127fd",
      "effectiveGasPrice": "0xf428a",
      "from": "0x1c79f0bbe94ce84a3052bcea50fef817765d53b1",
      "to": "0x0409159ed86528a5e86c74fc5697c67f15f5940f",
      "contractAddress": null,
      "l1BaseFeeScalar": "0x44d",
      "l1BlobBaseFee": "0x1",
      "l1BlobBaseFeeScalar": "0xa118b",
      "l1Fee": "0x55",
      "l1GasPrice": "0xb",
      "l1GasUsed": "0x640"
    },
    {
      "status": "0x1",
      "cumulativeGasUsed": "0x3a4c16",
      "logs": [
        {
          "address": "0x0409159ed86528a5e86c74fc5697c67f15f5940f",
          "topics": [
            "0xaabd903a35d2a0d4769cc1dc96a33fb2ef3fdf7217a9620006cbf8895563c548",
            "0x0000000000000000000000000000000000000000000000000000000000000065"
          ],
          "data": "0x00000000000000000000000000000000000000000000000000000000000000460000000000000000000000000000000000000000000000000000000000001c20",
          "blockHash": "0x8d405d30fb6beb106f3f4f82fd2918e4a11e49760c9a7557cb1dba1ea0a3aa3e",
          "blockNumber": "0x1efa94e",
          "blockTimestamp": "0x68f2b17c",
          "transactionHash": "0x4952af118b530af999e99b5361330c2959068b2128094b9d030c71fe4af907bc",
          "transactionIndex": "0x25",
          "logIndex": "0x94",
          "removed": false
        }
      ],
      "logsBloom": "0x02000000000000000000000000000000000000000000000000000000000000000000000000000000000000000000000000000000000000008000000000000000000000000000000000000000000000000000000000000000000000000000000000000000000000000000000000000000000000000000000002000000020000000000000000000000000000000000000000000000000000000000000000000000000000000000200000000000000000000000000000000000000000000000000000000000000000000000000000000000000000000000000000000000000000000000000000000000080000002000000000000000000000000080000000010000",
      "type": "0x2",
      "transactionHash": "0x4952af118b530af999e99b5361330c2959068b2128094b9d030c71fe4af907bc",
      "transactionIndex": "0x25",
      "blockHash": "0x8d405d30fb6beb106f3f4f82fd2918e4a11e49760c9a7557cb1dba1ea0a3aa3e",
      "blockNumber": "0x1efa94e",
      "gasUsed": "0x12587",
      "effectiveGasPrice": "0xf428a",
      "from": "0x1c79f0bbe94ce84a3052bcea50fef817765d53b1",
      "to": "0x0409159ed86528a5e86c74fc5697c67f15f5940f",
      "contractAddress": null,
      "l1BaseFeeScalar": "0x44d",
      "l1BlobBaseFee": "0x1",
      "l1BlobBaseFeeScalar": "0xa118b",
      "l1Fee": "0x55",
      "l1GasPrice": "0xb",
      "l1GasUsed": "0x640"
    },
    {
      "status": "0x1",
      "cumulativeGasUsed": "0x3b7413",
      "logs": [
        {
          "address": "0x0409159ed86528a5e86c74fc5697c67f15f5940f",
          "topics": [
            "0xaedf9dbec5cd179aa42373bacf3b088971d0c7674fc6ebc755ff46fe27b5539b",
            "0xcb971ff18676655778682634295c921e8dd2de645c49f2f51458e2e150c751d9"
          ],
          "data": "0x0000000000000000000000000000000000000000000000000000b5e620f480000000000000000000000000000000000000000000000000000000000000000001",
          "blockHash": "0x8d405d30fb6beb106f3f4f82fd2918e4a11e49760c9a7557cb1dba1ea0a3aa3e",
          "blockNumber": "0x1efa94e",
          "blockTimestamp": "0x68f2b17c",
          "transactionHash": "0xca1ef570863c493e573805f58310884931e275c3a78254a18c2b6d18f94557cb",
          "transactionIndex": "0x26",
          "logIndex": "0x95",
          "removed": false
        }
      ],
      "logsBloom": "0x00000000000000000000000000000000000000000000000000000000000000000000000010000000000000000000000001000000000200000000000000000000200000000000000000000000000000000000000000000000000000000000000000000000000000000000000000000000800000000000000000000000000000000000000000000000000000000000000000000000000000000000000000000000000000000000200000000000000000000000000000000000000000000000000000000000000000000000000000000000000000000000000000000000000000000000000000000000080100000000000000000000000000000080000000000000",
      "type": "0x2",
      "transactionHash": "0xca1ef570863c493e573805f58310884931e275c3a78254a18c2b6d18f94557cb",
      "transactionIndex": "0x26",
      "blockHash": "0x8d405d30fb6beb106f3f4f82fd2918e4a11e49760c9a7557cb1dba1ea0a3aa3e",
      "blockNumber": "0x1efa94e",
      "gasUsed": "0x127fd",
      "effectiveGasPrice": "0xf428a",
      "from": "0x1c79f0bbe94ce84a3052bcea50fef817765d53b1",
      "to": "0x0409159ed86528a5e86c74fc5697c67f15f5940f",
      "contractAddress": null,
      "l1BaseFeeScalar": "0x44d",
      "l1BlobBaseFee": "0x1",
      "l1BlobBaseFeeScalar": "0xa118b",
      "l1Fee": "0x55",
      "l1GasPrice": "0xb",
      "l1GasUsed": "0x640"
    },
    {
      "status": "0x1",
      "cumulativeGasUsed": "0x3c999a",
      "logs": [
        {
          "address": "0x0409159ed86528a5e86c74fc5697c67f15f5940f",
          "topics": [
            "0xaabd903a35d2a0d4769cc1dc96a33fb2ef3fdf7217a9620006cbf8895563c548",
            "0x0000000000000000000000000000000000000000000000000000000000000066"
          ],
          "data": "0x00000000000000000000000000000000000000000000000000000000000000960000000000000000000000000000000000000000000000000000000000003840",
          "blockHash": "0x8d405d30fb6beb106f3f4f82fd2918e4a11e49760c9a7557cb1dba1ea0a3aa3e",
          "blockNumber": "0x1efa94e",
          "blockTimestamp": "0x68f2b17c",
          "transactionHash": "0x713faf97b65f592f3617db9ab4759d240965410f2ce5338fbf5612fbc0dc776a",
          "transactionIndex": "0x27",
          "logIndex": "0x96",
          "removed": false
        }
      ],
      "logsBloom": "0x00000000000000000000000000000000000000000000000000000000000000000000000000000000000000000000000000000000000100000000000000000000000000000000000000000000000000000000000000000000000000000000000000000000000000000000000000000000000000000000000002000000000000000000000000000000000000000000000000000000000000000000000000000000000000000000200000000000000000000000000000000000000000000000000000000000000000000000000000000000000000000000000000000000000000000000000000000400080000002000000002000000000000000080000000010000",
      "type": "0x2",
      "transactionHash": "0x713faf97b65f592f3617db9ab4759d240965410f2ce5338fbf5612fbc0dc776a",
      "transactionIndex": "0x27",
      "blockHash": "0x8d405d30fb6beb106f3f4f82fd2918e4a11e49760c9a7557cb1dba1ea0a3aa3e",
      "blockNumber": "0x1efa94e",
      "gasUsed": "0x12587",
      "effectiveGasPrice": "0xf428a",
      "from": "0x1c79f0bbe94ce84a3052bcea50fef817765d53b1",
      "to": "0x0409159ed86528a5e86c74fc5697c67f15f5940f",
      "contractAddress": null,
      "l1BaseFeeScalar": "0x44d",
      "l1BlobBaseFee": "0x1",
      "l1BlobBaseFeeScalar": "0xa118b",
      "l1Fee": "0x55",
      "l1GasPrice": "0xb",
      "l1GasUsed": "0x640"
    },
    {
      "status": "0x1",
      "cumulativeGasUsed": "0x3dc1a3",
      "logs": [
        {
          "address": "0x0409159ed86528a5e86c74fc5697c67f15f5940f",
          "topics": [
            "0xaedf9dbec5cd179aa42373bacf3b088971d0c7674fc6ebc755ff46fe27b5539b",
            "0x6d08d6a78cafb7db4da6cc08cd18e745ca9eb30abf5ee9cd0d1a114f93c23fd8"
          ],
          "data": "0x00000000000000000000000000000000000000000000000000013e52b9abe0000000000000000000000000000000000000000000000000000000000000000001",
          "blockHash": "0x8d405d30fb6beb106f3f4f82fd2918e4a11e49760c9a7557cb1dba1ea0a3aa3e",
          "blockNumber": "0x1efa94e",
          "blockTimestamp": "0x68f2b17c",
          "transactionHash": "0x5d45e96e12ec9a5d06280d98c6ffd5dd067302a7116fd63a93dea475d1efe5b0",
          "transactionIndex": "0x28",
          "logIndex": "0x97",
          "removed": false
        }
      ],
      "logsBloom": "0x00000000000000000000000000000000000000000000000000000000000000000000000010000000000000000000000001000000000200000000000000000000000000000000000000000000000000000000080000000000000000000010000000000000000000000000000000000000000000000000000000000000000000000000000000000000000000000000000000000000000000000000000000000000000000000000200000000000000000000000000000000000000000000000000000000000000000000000000000000000000000000000000000000000000000000000000000000000080000000000000002000000000000000080000000000000",
      "type": "0x2",
      "transactionHash": "0x5d45e96e12ec9a5d06280d98c6ffd5dd067302a7116fd63a93dea475d1efe5b0",
      "transactionIndex": "0x28",
      "blockHash": "0x8d405d30fb6beb106f3f4f82fd2918e4a11e49760c9a7557cb1dba1ea0a3aa3e",
      "blockNumber": "0x1efa94e",
      "gasUsed": "0x12809",
      "effectiveGasPrice": "0xf428a",
      "from": "0x1c79f0bbe94ce84a3052bcea50fef817765d53b1",
      "to": "0x0409159ed86528a5e86c74fc5697c67f15f5940f",
      "contractAddress": null,
      "l1BaseFeeScalar": "0x44d",
      "l1BlobBaseFee": "0x1",
      "l1BlobBaseFeeScalar": "0xa118b",
      "l1Fee": "0x55",
      "l1GasPrice": "0xb",
      "l1GasUsed": "0x647"
    },
    {
      "status": "0x1",
      "cumulativeGasUsed": "0x3e4afb",
      "logs": [
        {
          "address": "0x0409159ed86528a5e86c74fc5697c67f15f5940f",
          "topics": [
            "0x2c99442a6bb777100e5c944fda2c88594987878df06e359066b6fcdf2fc72f34",
            "0x0000000000000000000000000000000000000000000000000000000000000001"
          ],
          "data": "0x0000000000000000000000000000000000000000000000000000000000000000",
          "blockHash": "0x8d405d30fb6beb106f3f4f82fd2918e4a11e49760c9a7557cb1dba1ea0a3aa3e",
          "blockNumber": "0x1efa94e",
          "blockTimestamp": "0x68f2b17c",
          "transactionHash": "0x9b0574a12941f99e89c9a19bd3ec6ffde4bb296718d1383a7164b50359342bf9",
          "transactionIndex": "0x29",
          "logIndex": "0x98",
          "removed": false
        }
      ],
      "logsBloom": "0x000000000000000000000000000000000000000000000000000000000000000000000000000000000000000000000000000000000000000000000000000400000000000000000000000000000000000000000000000400100000000000000000000000000000000000000000000000000000000000000000000400000000000000000000000000000000000000000000000000000000000000000000000000000000000000002000000000000000000000000000000000000000000000000000000000000000000000000000000000000000000000000000000000000000400000000000000000000c0000000000000000000000000000000080000000000000",
      "type": "0x2",
      "transactionHash": "0x9b0574a12941f99e89c9a19bd3ec6ffde4bb296718d1383a7164b50359342bf9",
      "transactionIndex": "0x29",
      "blockHash": "0x8d405d30fb6beb106f3f4f82fd2918e4a11e49760c9a7557cb1dba1ea0a3aa3e",
      "blockNumber": "0x1efa94e",
      "gasUsed": "0x8958",
      "effectiveGasPrice": "0xf428a",
      "from": "0x1c79f0bbe94ce84a3052bcea50fef817765d53b1",
      "to": "0x0409159ed86528a5e86c74fc5697c67f15f5940f",
      "contractAddress": null,
      "l1BaseFeeScalar": "0x44d",
      "l1BlobBaseFee": "0x1",
      "l1BlobBaseFeeScalar": "0xa118b",
      "l1Fee": "0x55",
      "l1GasPrice": "0xb",
      "l1GasUsed": "0x640"
    },
    {
      "status": "0x1",
      "cumulativeGasUsed": "0x3ee27c",
      "logs": [
        {
          "address": "0x0409159ed86528a5e86c74fc5697c67f15f5940f",
          "topics": [
            "0xaedf9dbec5cd179aa42373bacf3b088971d0c7674fc6ebc755ff46fe27b5539b",
            "0x05ccc8e6f08033233c11ba5a628b393174cd49cef4e43ab36c6ad2a4173cc08f"
          ],
          "data": "0x00000000000000000000000000000000000000000000000000038d7ea4c680000000000000000000000000000000000000000000000000000000000000000001",
          "blockHash": "0x8d405d30fb6beb106f3f4f82fd2918e4a11e49760c9a7557cb1dba1ea0a3aa3e",
          "blockNumber": "0x1efa94e",
          "blockTimestamp": "0x68f2b17c",
          "transactionHash": "0xfd8b741a0eb55fe2f9eebfbd51759b1c0ecb0e3c4d490d0ecff49d01b2452a57",
          "transactionIndex": "0x2a",
          "logIndex": "0x99",
          "removed": false
        }
      ],
      "logsBloom": "0x00000000000000000000000000000000000000000000000010000000000000000000000010000000000000000000000001000000000200000000000000000000000000000000000000000000000000000000000000000000000000000000000000000000000000000000000000000000000000000000000000000000000000000000000000000000000000000000000000000000000000000000000000000000000000000008200000000000000000000000000000000000000000000000000000000000000000000000000000000000000000000000000000004000000000000000000000000000080000000000000000000000000000000080000000000000",
      "type": "0x2",
      "transactionHash": "0xfd8b741a0eb55fe2f9eebfbd51759b1c0ecb0e3c4d490d0ecff49d01b2452a57",
      "transactionIndex": "0x2a",
      "blockHash": "0x8d405d30fb6beb106f3f4f82fd2918e4a11e49760c9a7557cb1dba1ea0a3aa3e",
      "blockNumber": "0x1efa94e",
      "gasUsed": "0x9781",
      "effectiveGasPrice": "0xf428a",
      "from": "0x1c79f0bbe94ce84a3052bcea50fef817765d53b1",
      "to": "0x0409159ed86528a5e86c74fc5697c67f15f5940f",
      "contractAddress": null,
      "l1BaseFeeScalar": "0x44d",
      "l1BlobBaseFee": "0x1",
      "l1BlobBaseFeeScalar": "0xa118b",
      "l1Fee": "0x55",
      "l1GasPrice": "0xb",
      "l1GasUsed": "0x640"
    },
    {
      "status": "0x1",
      "cumulativeGasUsed": "0x4017d1",
      "logs": [
        {
          "address": "0x0409159ed86528a5e86c74fc5697c67f15f5940f",
          "topics": [
            "0x2c99442a6bb777100e5c944fda2c88594987878df06e359066b6fcdf2fc72f34",
            "0x0000000000000000000000000000000000000000000000000000000000000002"
          ],
          "data": "0x0000000000000000000000000000000000000000000000000000000000001388",
          "blockHash": "0x8d405d30fb6beb106f3f4f82fd2918e4a11e49760c9a7557cb1dba1ea0a3aa3e",
          "blockNumber": "0x1efa94e",
          "blockTimestamp": "0x68f2b17c",
          "transactionHash": "0x8c4d60fe4d1cafeccf52701730dba9cd36471206873592d86b2945e0e6a0135f",
          "transactionIndex": "0x2c",
          "logIndex": "0x9b",
          "removed": false
        }
      ],
      "logsBloom": "0x040000000000000000000000000000000000000000000000000000000000000000000000000000000000000000000000000000000000000000000000000000000000000000000000000000000000000000000000000000100000000000000000000000000000000000000000000000000000000000000000000400000000000000000000000000000000000000000000000000000000000000000000000000000000000000002000000001000000000000000000000000000000000000000000000000000000000000000000000000000000000000000000000000000000000000000000000000000c0000000000000000000000008000000080000000000000",
      "type": "0x2",
      "transactionHash": "0x8c4d60fe4d1cafeccf52701730dba9cd36471206873592d86b2945e0e6a0135f",
      "transactionIndex": "0x2c",
      "blockHash": "0x8d405d30fb6beb106f3f4f82fd2918e4a11e49760c9a7557cb1dba1ea0a3aa3e",
      "blockNumber": "0x1efa94e",
      "gasUsed": "0x9460",
      "effectiveGasPrice": "0xf428a",
      "from": "0x1c79f0bbe94ce84a3052bcea50fef817765d53b1",
      "to": "0x0409159ed86528a5e86c74fc5697c67f15f5940f",
      "contractAddress": null,
      "l1BaseFeeScalar": "0x44d",
      "l1BlobBaseFee": "0x1",
      "l1BlobBaseFeeScalar": "0xa118b",
      "l1Fee": "0x55",
      "l1GasPrice": "0xb",
      "l1GasUsed": "0x640"
    },
    {
      "status": "0x1",
      "cumulativeGasUsed": "0x5ee6e1",
      "logs": [
        {
          "address": "0x0409159ed86528a5e86c74fc5697c67f15f5940f",
          "topics": [
            "0xaedf9dbec5cd179aa42373bacf3b088971d0c7674fc6ebc755ff46fe27b5539b",
            "0x282a27a315626f9e51fcd79758385f6308e0ecfe72dac4e1a2d6c4aa5b42a735"
          ],
          "data": "0x0000000000000000000000000000000000000000000000000005543df729c0000000000000000000000000000000000000000000000000000000000000000001",
          "blockHash": "0x8d405d30fb6beb106f3f4f82fd2918e4a11e49760c9a7557cb1dba1ea0a3aa3e",
          "blockNumber": "0x1efa94e",
          "blockTimestamp": "0x68f2b17c",
          "transactionHash": "0x4e46d5bd268debd36cc05eca6770942e6f227ed763b02a40d1496cb765d93414",
          "transactionIndex": "0x3b",
          "logIndex": "0xba",
          "removed": false
        }
      ],
      "logsBloom": "0x00000000000000000000000000000000000000000000000000000000000000000000000010000000000000000000000001000000000200000000000000000000000000000000000000000000000000000000000000000000000000000000000000000000000000000000000000000000000000000000000000000000000000000000000000000000000000000000000000000000000000000000000000000000000000000000200000000000000000000000000000000000000000000000000000000000000000000000000000002000200000000000000000000000000000000000000000000000080000008000000000000000000000000080000000000000",
      "type": "0x2",
      "transactionHash": "0x4e46d5bd268debd36cc05eca6770942e6f227ed763b02a40d1496cb765d93414",
      "transactionIndex": "0x3b",
      "blockHash": "0x8d405d30fb6beb106f3f4f82fd2918e4a11e49760c9a7557cb1dba1ea0a3aa3e",
      "blockNumber": "0x1efa94e",
      "gasUsed": "0x9781",
      "effectiveGasPrice": "0xf428a",
      "from": "0x1c79f0bbe94ce84a3052bcea50fef817765d53b1",
      "to": "0x0409159ed86528a5e86c74fc5697c67f15f5940f",
      "contractAddress": null,
      "l1BaseFeeScalar": "0x44d",
      "l1BlobBaseFee": "0x1",
      "l1BlobBaseFeeScalar": "0xa118b",
      "l1Fee": "0x55",
      "l1GasPrice": "0xb",
      "l1GasUsed": "0x640"
    },
    {
      "status": "0x1",
      "cumulativeGasUsed": "0x60bd43",
      "logs": [
        {
          "address": "0x0409159ed86528a5e86c74fc5697c67f15f5940f",
          "topics": [
            "0x2c99442a6bb777100e5c944fda2c88594987878df06e359066b6fcdf2fc72f34",
            "0x0000000000000000000000000000000000000000000000000000000000000003"
          ],
          "data": "0x0000000000000000000000000000000000000000000000000000000000002710",
          "blockHash": "0x8d405d30fb6beb106f3f4f82fd2918e4a11e49760c9a7557cb1dba1ea0a3aa3e",
          "blockNumber": "0x1efa94e",
          "blockTimestamp": "0x68f2b17c",
          "transactionHash": "0xd69bef49db01b11b2e794ba5ca20bc6454df265827d1e27b03b874935241c454",
          "transactionIndex": "0x3e",
          "logIndex": "0xbd",
          "removed": false
        }
      ],
      "logsBloom": "0x000000000000000000000000000000000000000000000000000000000000000000000000000000000000000000000000000000000200000000000000000000000000000000000000000000000000000000000000000000100000000000000000000000000000000000000000000000000000000000000000000400000000000000000000000000000000000000000000000000000000000000000000000000000000000000002000000000000000000000000000008000000000000000004000000000000000000000000000000000000000000000000000000000000000000000000000000000000c0000000000000000000000000000000080000000000000",
      "type": "0x2",
      "transactionHash": "0xd69bef49db01b11b2e794ba5ca20bc6454df265827d1e27b03b874935241c454",
      "transactionIndex": "0x3e",
      "blockHash": "0x8d405d30fb6beb106f3f4f82fd2918e4a11e49760c9a7557cb1dba1ea0a3aa3e",
      "blockNumber": "0x1efa94e",
      "gasUsed": "0x9460",
      "effectiveGasPrice": "0xf428a",
      "from": "0x1c79f0bbe94ce84a3052bcea50fef817765d53b1",
      "to": "0x0409159ed86528a5e86c74fc5697c67f15f5940f",
      "contractAddress": null,
      "l1BaseFeeScalar": "0x44d",
      "l1BlobBaseFee": "0x1",
      "l1BlobBaseFeeScalar": "0xa118b",
      "l1Fee": "0x55",
      "l1GasPrice": "0xb",
      "l1GasUsed": "0x640"
    },
    {
      "status": "0x1",
      "cumulativeGasUsed": "0x6154b8",
      "logs": [
        {
          "address": "0x0409159ed86528a5e86c74fc5697c67f15f5940f",
          "topics": [
            "0xaedf9dbec5cd179aa42373bacf3b088971d0c7674fc6ebc755ff46fe27b5539b",
            "0xaef116f81c7eb108af6dd09475c72cb47c94ff9aaab6a6802df27f96ce9ee4ac"
          ],
          "data": "0x00000000000000000000000000000000000000000000000000071afd498d00000000000000000000000000000000000000000000000000000000000000000001",
          "blockHash": "0x8d405d30fb6beb106f3f4f82fd2918e4a11e49760c9a7557cb1dba1ea0a3aa3e",
          "blockNumber": "0x1efa94e",
          "blockTimestamp": "0x68f2b17c",
          "transactionHash": "0xa9fc4189c00d202f4d333533430e94b50a56d5085f3552162b152fa25ea0310b",
          "transactionIndex": "0x3f",
          "logIndex": "0xbe",
          "removed": false
        }
      ],
      "logsBloom": "0x00000000000000000000000000000000000000000000000000000000000000000000000010000000000000000000000101000000000200000000000000000000000000000000000000000000000000000000000000000000000000000000000000000000000000000000000000000000000000000000000000000000000000000000000000000000000000000000000000000000000000000000000000000000000000000000200000000000000000000000008000000000000000000000000000000000000000000000000000000000000000000000000000000000000000000000000000400000080000000000000000000000000000000080000000000000",
      "type": "0x2",
      "transactionHash": "0xa9fc4189c00d202f4d333533430e94b50a56d5085f3552162b152fa25ea0310b",
      "transactionIndex": "0x3f",
      "blockHash": "0x8d405d30fb6beb106f3f4f82fd2918e4a11e49760c9a7557cb1dba1ea0a3aa3e",
      "blockNumber": "0x1efa94e",
      "gasUsed": "0x9775",
      "effectiveGasPrice": "0xf428a",
      "from": "0x1c79f0bbe94ce84a3052bcea50fef817765d53b1",
      "to": "0x0409159ed86528a5e86c74fc5697c67f15f5940f",
      "contractAddress": null,
      "l1BaseFeeScalar": "0x44d",
      "l1BlobBaseFee": "0x1",
      "l1BlobBaseFeeScalar": "0xa118b",
      "l1Fee": "0x55",
      "l1GasPrice": "0xb",
      "l1GasUsed": "0x640"
    },
    {
      "status": "0x1",
      "cumulativeGasUsed": "0x61ec2d",
      "logs": [
        {
          "address": "0x0409159ed86528a5e86c74fc5697c67f15f5940f",
          "topics": [
            "0xaedf9dbec5cd179aa42373bacf3b088971d0c7674fc6ebc755ff46fe27b5539b",
            "0x9726fc1f1bc77e15a34e697ec27a2adbafdf5c7516b53310e76039bb54d052b8"
          ],
          "data": "0x00000000000000000000000000000000000000000000000000005af3107a40000000000000000000000000000000000000000000000000000000000000000001",
          "blockHash": "0x8d405d30fb6beb106f3f4f82fd2918e4a11e49760c9a7557cb1dba1ea0a3aa3e",
          "blockNumber": "0x1efa94e",
          "blockTimestamp": "0x68f2b17c",
          "transactionHash": "0x19889c2f26a47042c2f7685fc7d3fba2f98f043d57ca968d6b6ecb93e362b451",
          "transactionIndex": "0x40",
          "logIndex": "0xbf",
          "removed": false
        }
      ],
      "logsBloom": "0x00000000000000000000000000000000000000000000000000000000000000000000000010000000000000000000000001000000000200000000000000000000000000000000000000000000000000000000000000000000000000000020000000000000000000000000000000000000000000000000000000000000000000000000000000000000000000000000000000000000000000000000000000000000000000000000200000000000000000000000000000000000000000000000000000000000000000000000000008000000000000000000400000000000000000000000000000000000080000000000000000000000000000000080000000000000",
      "type": "0x2",
      "transactionHash": "0x19889c2f26a47042c2f7685fc7d3fba2f98f043d57ca968d6b6ecb93e362b451",
      "transactionIndex": "0x40",
      "blockHash": "0x8d405d30fb6beb106f3f4f82fd2918e4a11e49760c9a7557cb1dba1ea0a3aa3e",
      "blockNumber": "0x1efa94e",
      "gasUsed": "0x9775",
      "effectiveGasPrice": "0xf428a",
      "from": "0x1c79f0bbe94ce84a3052bcea50fef817765d53b1",
      "to": "0x0409159ed86528a5e86c74fc5697c67f15f5940f",
      "contractAddress": null,
      "l1BaseFeeScalar": "0x44d",
      "l1BlobBaseFee": "0x1",
      "l1BlobBaseFeeScalar": "0xa118b",
      "l1Fee": "0x55",
      "l1GasPrice": "0xb",
      "l1GasUsed": "0x640"
    },
    {
      "status": "0x1",
      "cumulativeGasUsed": "0x5a760",
      "logs": [
        {
          "address": "0x0409159ed86528a5e86c74fc5697c67f15f5940f",
          "topics": [
            "0xaedf9dbec5cd179aa42373bacf3b088971d0c7674fc6ebc755ff46fe27b5539b",
            "0x1020419fb03705853f9fe05e8793f56d01ac5bae0d94113f65760fb042498b6c"
          ],
          "data": "0x00000000000000000000000000000000000000000000000000071afd498d00000000000000000000000000000000000000000000000000000000000000000001",
          "blockHash": "0xb848d049f5ca822b356d8bd8c0b1dcb3e97584415e3a4bdadf709f3a5ab031a5",
          "blockNumber": "0x1efa94f",
          "blockTimestamp": "0x68f2b17e",
          "transactionHash": "0xe36502b5ff7764282df7b247f34405d17d5d6f0797da95f63a653838916ed1fd",
          "transactionIndex": "0x8",
          "logIndex": "0x7",
          "removed": false
        }
      ],
      "logsBloom": "0x00000000000000400000000000000000000000000000000000000000000000000400000010000000000000000000000001000000000200000000000000000000000000000000000000000000000000000000000000000000000000000000000000000000000000000000000000000000000000000000000000000000000000000000000000000000000000000000000000000000000000000000000000000000000000000000200000000000000000000000000000000000000000000000000000000000000000000400000000000000000000000000000000000000000000000000000000000000080000000000000000000000000000000080000000000000",
      "type": "0x2",
      "transactionHash": "0xe36502b5ff7764282df7b247f34405d17d5d6f0797da95f63a653838916ed1fd",
      "transactionIndex": "0x8",
      "blockHash": "0xb848d049f5ca822b356d8bd8c0b1dcb3e97584415e3a4bdadf709f3a5ab031a5",
      "blockNumber": "0x1efa94f",
      "gasUsed": "0x9775",
      "effectiveGasPrice": "0xf428a",
      "from": "0x1c79f0bbe94ce84a3052bcea50fef817765d53b1",
      "to": "0x0409159ed86528a5e86c74fc5697c67f15f5940f",
      "contractAddress": null,
      "l1BaseFeeScalar": "0x44d",
      "l1BlobBaseFee": "0x1",
      "l1BlobBaseFeeScalar": "0xa118b",
      "l1Fee": "0x55",
      "l1GasPrice": "0xb",
      "l1GasUsed": "0x640"
    },
    {
      "status": "0x1",
      "cumulativeGasUsed": "0x62c73",
      "logs": [],
      "logsBloom": "0x00000000000000000000000000000000000000000000000000000000000000000000000000000000000000000000000000000000000000000000000000000000000000000000000000000000000000000000000000000000000000000000000000000000000000000000000000000000000000000000000000000000000000000000000000000000000000000000000000000000000000000000000000000000000000000000000000000000000000000000000000000000000000000000000000000000000000000000000000000000000000000000000000000000000000000000000000000000000000000000000000000000000000000000000000000000",
      "type": "0x2",
      "transactionHash": "0xb1b14c6b36edde7facee0f417a96c92977476423626c73bb5d9ec82560c4e8c0",
      "transactionIndex": "0x9",
      "blockHash": "0xb848d049f5ca822b356d8bd8c0b1dcb3e97584415e3a4bdadf709f3a5ab031a5",
      "blockNumber": "0x1efa94f",
      "gasUsed": "0x8513",
      "effectiveGasPrice": "0xf428a",
      "from": "0x1c79f0bbe94ce84a3052bcea50fef817765d53b1",
      "to": "0x8ffb4e6cc0c1b28eb4b355bbedec92c05055ec6f",
      "contractAddress": null,
      "l1BaseFeeScalar": "0x44d",
      "l1BlobBaseFee": "0x1",
      "l1BlobBaseFeeScalar": "0xa118b",
      "l1Fee": "0x5a",
      "l1GasPrice": "0xb",
      "l1GasUsed": "0x6a4"
    },
    {
      "status": "0x1",
      "cumulativeGasUsed": "0x6b17a",
      "logs": [],
      "logsBloom": "0x00000000000000000000000000000000000000000000000000000000000000000000000000000000000000000000000000000000000000000000000000000000000000000000000000000000000000000000000000000000000000000000000000000000000000000000000000000000000000000000000000000000000000000000000000000000000000000000000000000000000000000000000000000000000000000000000000000000000000000000000000000000000000000000000000000000000000000000000000000000000000000000000000000000000000000000000000000000000000000000000000000000000000000000000000000000",
      "type": "0x2",
      "transactionHash": "0x39261de3885ce3f49f528ddc4f38df4b53c79c28aae1b057ece68dacab6d9e64",
      "transactionIndex": "0xa",
      "blockHash": "0xb848d049f5ca822b356d8bd8c0b1dcb3e97584415e3a4bdadf709f3a5ab031a5",
      "blockNumber": "0x1efa94f",
      "gasUsed": "0x8507",
      "effectiveGasPrice": "0xf428a",
      "from": "0x1c79f0bbe94ce84a3052bcea50fef817765d53b1",
      "to": "0x8ffb4e6cc0c1b28eb4b355bbedec92c05055ec6f",
      "contractAddress": null,
      "l1BaseFeeScalar": "0x44d",
      "l1BlobBaseFee": "0x1",
      "l1BlobBaseFeeScalar": "0xa118b",
      "l1Fee": "0x5a",
      "l1GasPrice": "0xb",
      "l1GasUsed": "0x6a4"
    },
    {
      "status": "0x1",
      "cumulativeGasUsed": "0x73651",
      "logs": [],
      "logsBloom": "0x00000000000000000000000000000000000000000000000000000000000000000000000000000000000000000000000000000000000000000000000000000000000000000000000000000000000000000000000000000000000000000000000000000000000000000000000000000000000000000000000000000000000000000000000000000000000000000000000000000000000000000000000000000000000000000000000000000000000000000000000000000000000000000000000000000000000000000000000000000000000000000000000000000000000000000000000000000000000000000000000000000000000000000000000000000000",
      "type": "0x2",
      "transactionHash": "0x21d53d5db0cb2e3b7c42f361160bb4c08a514f28ca54ad99ecc91e090e751731",
      "transactionIndex": "0xb",
      "blockHash": "0xb848d049f5ca822b356d8bd8c0b1dcb3e97584415e3a4bdadf709f3a5ab031a5",
      "blockNumber": "0x1efa94f",
      "gasUsed": "0x84d7",
      "effectiveGasPrice": "0xf428a",
      "from": "0x1c79f0bbe94ce84a3052bcea50fef817765d53b1",
      "to": "0x43a2253fb314921a26a3376c1de1413b7a768688",
      "contractAddress": null,
      "l1BaseFeeScalar": "0x44d",
      "l1BlobBaseFee": "0x1",
      "l1BlobBaseFeeScalar": "0xa118b",
      "l1Fee": "0x5a",
      "l1GasPrice": "0xb",
      "l1GasUsed": "0x6a4"
    },
    {
      "status": "0x1",
      "cumulativeGasUsed": "0x8b21d",
      "logs": [
        {
          "address": "0xb231b2c5ef69ad544a73f83bf92f57bc1eb5b217",
          "topics": [
            "0x2f8788117e7eff1d82e926ec794901d17c78024a50270940304540a733656f0d",
            "0x241ecf16d79d0f8dbfb92cbc07fe17840425976cf0667f022fe9877caa831b08",
            "0x00000000000000000000000031e88a9d6c3ee6c328344f6124e5b060faa620c9",
            "0x0000000000000000000000001c79f0bbe94ce84a3052bcea50fef817765d53b1"
          ],
          "data": "0x",
          "blockHash": "0xb848d049f5ca822b356d8bd8c0b1dcb3e97584415e3a4bdadf709f3a5ab031a5",
          "blockNumber": "0x1efa94f",
          "blockTimestamp": "0x68f2b17e",
          "transactionHash": "0xc7c98b0e4f2879cfc4db91bae0eed32548d8ea3daac8b41298f0787a2f0c11eb",
          "transactionIndex": "0xd",
          "logIndex": "0x9",
          "removed": false
        }
      ],
      "logsBloom": "0x00000004000000000001000000000000000000020000000000000000200000000000000000000000000000000000000010800000000000000000000000000000000000000020000000000000000000000000000000000000000000000000000000000000000000000004000000000000000000000000000000000000000000000000000000000000000000000000000000000200000000000200000000000000000000000000000000000000000000000000000000000000001000000000000000000000000000000100020000000000000000100000000100000000000000000000000000000000000000000000000000000000000000000000000000000000",
      "type": "0x2",
      "transactionHash": "0xc7c98b0e4f2879cfc4db91bae0eed32548d8ea3daac8b41298f0787a2f0c11eb",
      "transactionIndex": "0xd",
      "blockHash": "0xb848d049f5ca822b356d8bd8c0b1dcb3e97584415e3a4bdadf709f3a5ab031a5",
      "blockNumber": "0x1efa94f",
      "gasUsed": "0xdae3",
      "effectiveGasPrice": "0xf428a",
      "from": "0x1c79f0bbe94ce84a3052bcea50fef817765d53b1",
      "to": "0xb231b2c5ef69ad544a73f83bf92f57bc1eb5b217",
      "contractAddress": null,
      "l1BaseFeeScalar": "0x44d",
      "l1BlobBaseFee": "0x1",
      "l1BlobBaseFeeScalar": "0xa118b",
      "l1Fee": "0x5b",
      "l1GasPrice": "0xb",
      "l1GasUsed": "0x6b2"
    },
    {
      "status": "0x1",
      "cumulativeGasUsed": "0x98dd0",
      "logs": [
        {
          "address": "0x8ffb4e6cc0c1b28eb4b355bbedec92c05055ec6f",
          "topics": [
            "0x2f8788117e7eff1d82e926ec794901d17c78024a50270940304540a733656f0d",
            "0x9f2df0fed2c77648de5860a4cc508cd0818c85b8b8a1ab4ceeef8d981c8956a6",
            "0x00000000000000000000000031e88a9d6c3ee6c328344f6124e5b060faa620c9",
            "0x0000000000000000000000001c79f0bbe94ce84a3052bcea50fef817765d53b1"
          ],
          "data": "0x",
          "blockHash": "0xb848d049f5ca822b356d8bd8c0b1dcb3e97584415e3a4bdadf709f3a5ab031a5",
          "blockNumber": "0x1efa94f",
          "blockTimestamp": "0x68f2b17e",
          "transactionHash": "0x1b71ed447e851cd54cc9b03e643284c94a63aff62538fc757a04c6fe1edf81c6",
          "transactionIndex": "0xe",
          "logIndex": "0xa",
          "removed": false
        }
      ],
      "logsBloom": "0x00000004000000000001000000000000000080000000000000000000200000000000000000000000000000000000004010800000000000000008000000000000000000000000000000000000000000000000000000000000000000000000000000000000000000000000000000000000000000000000000000000000001000000100000000000000000000000000000000000000000000000200000000000000000000000000000000000000000000000000000000000000001000000000000000000000000000000100000000000000001000000000000100000000000000000000000000000000000000000000000000000000000000000000000000000000",
      "type": "0x2",
      "transactionHash": "0x1b71ed447e851cd54cc9b03e643284c94a63aff62538fc757a04c6fe1edf81c6",
      "transactionIndex": "0xe",
      "blockHash": "0xb848d049f5ca822b356d8bd8c0b1dcb3e97584415e3a4bdadf709f3a5ab031a5",
      "blockNumber": "0x1efa94f",
      "gasUsed": "0xdbb3",
      "effectiveGasPrice": "0xf428a",
      "from": "0x1c79f0bbe94ce84a3052bcea50fef817765d53b1",
      "to": "0x8ffb4e6cc0c1b28eb4b355bbedec92c05055ec6f",
      "contractAddress": null,
      "l1BaseFeeScalar": "0x44d",
      "l1BlobBaseFee": "0x1",
      "l1BlobBaseFeeScalar": "0xa118b",
      "l1Fee": "0x5b",
      "l1GasPrice": "0xb",
      "l1GasUsed": "0x6b2"
    },
    {
      "status": "0x1",
      "cumulativeGasUsed": "0xa6977",
      "logs": [
        {
          "address": "0x8ffb4e6cc0c1b28eb4b355bbedec92c05055ec6f",
          "topics": [
            "0x2f8788117e7eff1d82e926ec794901d17c78024a50270940304540a733656f0d",
            "0x3c11d16cbaffd01df69ce1c404f6340ee057498f5f00246190ea54220576a848",
            "0x00000000000000000000000031e88a9d6c3ee6c328344f6124e5b060faa620c9",
            "0x0000000000000000000000001c79f0bbe94ce84a3052bcea50fef817765d53b1"
          ],
          "data": "0x",
          "blockHash": "0xb848d049f5ca822b356d8bd8c0b1dcb3e97584415e3a4bdadf709f3a5ab031a5",
          "blockNumber": "0x1efa94f",
          "blockTimestamp": "0x68f2b17e",
          "transactionHash": "0x44fb9d6971081020a6358db979326e68c3a810b29ff025de3bf16b9637cb2804",
          "transactionIndex": "0xf",
          "logIndex": "0xb",
          "removed": false
        }
      ],
      "logsBloom": "0x00000004000010000001000000000000000080000000000000000000200000000000000000000000000000000000000010800000000000000008000000000000000000000000000000000000000000000000000000000000000000000000000000000000000000000000000000000000000000000000000000000000000000000100000000000000000000000000000000000000000000000200000000000000000000000000000000000000000000000000000000004000001000000000000000040000000000000100000000000000000000000000000100000000000000000000000000000000000000000000000000000000000000000000000000000000",
      "type": "0x2",
      "transactionHash": "0x44fb9d6971081020a6358db979326e68c3a810b29ff025de3bf16b9637cb2804",
      "transactionIndex": "0xf",
      "blockHash": "0xb848d049f5ca822b356d8bd8c0b1dcb3e97584415e3a4bdadf709f3a5ab031a5",
      "blockNumber": "0x1efa94f",
      "gasUsed": "0xdba7",
      "effectiveGasPrice": "0xf428a",
      "from": "0x1c79f0bbe94ce84a3052bcea50fef817765d53b1",
      "to": "0x8ffb4e6cc0c1b28eb4b355bbedec92c05055ec6f",
      "contractAddress": null,
      "l1BaseFeeScalar": "0x44d",
      "l1BlobBaseFee": "0x1",
      "l1BlobBaseFeeScalar": "0xa118b",
      "l1Fee": "0x5b",
      "l1GasPrice": "0xb",
      "l1GasUsed": "0x6b2"
    },
    {
      "status": "0x1",
      "cumulativeGasUsed": "0x685e41",
      "logs": [
        {
          "address": "0x43a2253fb314921a26a3376c1de1413b7a768688",
          "topics": [
            "0x2f8788117e7eff1d82e926ec794901d17c78024a50270940304540a733656f0d",
            "0x9f2df0fed2c77648de5860a4cc508cd0818c85b8b8a1ab4ceeef8d981c8956a6",
            "0x00000000000000000000000031e88a9d6c3ee6c328344f6124e5b060faa620c9",
            "0x0000000000000000000000001c79f0bbe94ce84a3052bcea50fef817765d53b1"
          ],
          "data": "0x",
          "blockHash": "0xb848d049f5ca822b356d8bd8c0b1dcb3e97584415e3a4bdadf709f3a5ab031a5",
          "blockNumber": "0x1efa94f",
          "blockTimestamp": "0x68f2b17e",
          "transactionHash": "0x4c29fc5c9824be759c37afbf96642199fb7de184544897dade628c1a1b4b1a6c",
          "transactionIndex": "0x19",
          "logIndex": "0x14",
          "removed": false
        }
      ],
      "logsBloom": "0x00000004000000000001000000000000200000000000000000000000200000000000000000000000000000000000004010800000000000000000000000000000000000000000000000000000000000000000000000000000000000000000000000000000000000000000000000000000000000000000000000000000001000000000000000000000000000000000000000000000000000000200000000000000000000000000000000000000000000000000000000000000001000000000000000000000000000000100000000000000001000000000000100000000000800000000000000000000000000400000000000000000000000000000000000000000",
      "type": "0x2",
      "transactionHash": "0x4c29fc5c9824be759c37afbf96642199fb7de184544897dade628c1a1b4b1a6c",
      "transactionIndex": "0x19",
      "blockHash": "0xb848d049f5ca822b356d8bd8c0b1dcb3e97584415e3a4bdadf709f3a5ab031a5",
      "blockNumber": "0x1efa94f",
      "gasUsed": "0xdb64",
      "effectiveGasPrice": "0xf428a",
      "from": "0x1c79f0bbe94ce84a3052bcea50fef817765d53b1",
      "to": "0x43a2253fb314921a26a3376c1de1413b7a768688",
      "contractAddress": null,
      "l1BaseFeeScalar": "0x44d",
      "l1BlobBaseFee": "0x1",
      "l1BlobBaseFeeScalar": "0xa118b",
      "l1Fee": "0x5b",
      "l1GasPrice": "0xb",
      "l1GasUsed": "0x6b2"
    },
    {
      "status": "0x1",
      "cumulativeGasUsed": "0x69379d",
      "logs": [
        {
          "address": "0x83d44b8867f270a34cbb856fa402417b5a9ecd82",
          "topics": [
            "0x2f8788117e7eff1d82e926ec794901d17c78024a50270940304540a733656f0d",
            "0x0000000000000000000000000000000000000000000000000000000000000000",
            "0x00000000000000000000000031e88a9d6c3ee6c328344f6124e5b060faa620c9",
            "0x0000000000000000000000001c79f0bbe94ce84a3052bcea50fef817765d53b1"
          ],
          "data": "0x",
          "blockHash": "0xb848d049f5ca822b356d8bd8c0b1dcb3e97584415e3a4bdadf709f3a5ab031a5",
          "blockNumber": "0x1efa94f",
          "blockTimestamp": "0x68f2b17e",
          "transactionHash": "0x7e79a2e1d2aecc87e71de2d04be0f37b718acdbe774dc1444a3fba3ad700cf0e",
          "transactionIndex": "0x1a",
          "logIndex": "0x15",
          "removed": false
        }
      ],
      "logsBloom": "0x00000004000000000001000000000000000000000000000000000000200000000000000000000000000002000000000010800000000000000004000000000000000000000000000000000000000000000000000000000000000000000000000000000000020000000000000000000800000000000000000000000000000000000000000000000000000000000000000000000000000000000200000000000000000000000000000000000000000000000000000000000000001000000000000000000000000000000100000000000000000000000000000100000000000420000000000000000000000000000000000000000000000000000000000000000000",
      "type": "0x2",
      "transactionHash": "0x7e79a2e1d2aecc87e71de2d04be0f37b718acdbe774dc1444a3fba3ad700cf0e",
      "transactionIndex": "0x1a",
      "blockHash": "0xb848d049f5ca822b356d8bd8c0b1dcb3e97584415e3a4bdadf709f3a5ab031a5",
      "blockNumber": "0x1efa94f",
      "gasUsed": "0xd95c",
      "effectiveGasPrice": "0xf428a",
      "from": "0x1c79f0bbe94ce84a3052bcea50fef817765d53b1",
      "to": "0x83d44b8867f270a34cbb856fa402417b5a9ecd82",
      "contractAddress": null,
      "l1BaseFeeScalar": "0x44d",
      "l1BlobBaseFee": "0x1",
      "l1BlobBaseFeeScalar": "0xa118b",
      "l1Fee": "0x55",
      "l1GasPrice": "0xb",
      "l1GasUsed": "0x640"
    }
  ],
  "libraries": [],
  "pending": [],
  "returns": {},
  "timestamp": 1760735616514,
  "chain": 84532,
  "commit": "1752f33"
}