{
  "transactions": [
    {
      "hash": "0x21c21610c916d904ba5c15e852e1fc12f6b16f1fcde5dc43e31b851705953bdf",
      "transactionType": "CALL",
      "contractName": null,
      "contractAddress": "0xbf227816afc11b5dd720d601ecc14fc5901c380b",
      "function": "registerGame(uint256,string,address)",
      "arguments": [
        "99",
        "mallware",
        "0x1C79F0Bbe94cE84a3052BCea50FEf817765d53B1"
      ],
      "transaction": {
        "from": "0x31e88a9d6c3ee6c328344f6124e5b060faa620c9",
        "to": "0xbf227816afc11b5dd720d601ecc14fc5901c380b",
        "gas": "0x1a557",
        "value": "0x0",
        "input": "0x4c912bb2000000000000000000000000000000000000000000000000000000000000006300000000000000000000000000000000000000000000000000000000000000600000000000000000000000001c79f0bbe94ce84a3052bcea50fef817765d53b100000000000000000000000000000000000000000000000000000000000000086d616c6c77617265000000000000000000000000000000000000000000000000",
        "nonce": "0xa",
        "chainId": "0x14a34"
      },
      "additionalContracts": [],
      "isFixedGasLimit": false
    }
  ],
  "receipts": [
    {
      "status": "0x1",
      "cumulativeGasUsed": "0x11f2045",
      "logs": [
        {
          "address": "0xbf227816afc11b5dd720d601ecc14fc5901c380b",
          "topics": [
            "0x2f40410fa8647f03b48153ec0162afdedcea2229fd2322bf132f0a1d75701c1a",
            "0x0000000000000000000000000000000000000000000000000000000000000063",
            "0x0000000000000000000000001c79f0bbe94ce84a3052bcea50fef817765d53b1"
          ],
          "data": "0x0000000000000000000000000000000000000000000000000000000000000040000000000000000000000000000000000000000000000000000000000000000100000000000000000000000000000000000000000000000000000000000000086d616c6c77617265000000000000000000000000000000000000000000000000",
          "blockHash": "0x7fec56f320a723d8185b82d27ebf81eab6d0bc6244773becd9b38ac84c54939e",
          "blockNumber": "0x1f0b7b2",
          "blockTimestamp": "0x68f4ce44",
          "transactionHash": "0x21c21610c916d904ba5c15e852e1fc12f6b16f1fcde5dc43e31b851705953bdf",
          "transactionIndex": "0x2b",
          "logIndex": "0x1f9",
          "removed": false
        }
      ],
      "logsBloom": "0x00000000000000100000000000000000000000000000000000000000000001000000000000100000000000000000000010000000000000000000000000000000000000000000000000000000000000000000000004000000000000000000000000000000000000000000000000000004000000000000000000000000000000000000000000000000000000000000000000000000000000000200000000000000000000000000000000000000000000000000000000000000800000000200000000000000000000020100000000000000000000000000000000000000000000000000000000000000000000000000000000002000000000000000000000000000",
      "type": "0x2",
      "transactionHash": "0x21c21610c916d904ba5c15e852e1fc12f6b16f1fcde5dc43e31b851705953bdf",
      "transactionIndex": "0x2b",
      "blockHash": "0x7fec56f320a723d8185b82d27ebf81eab6d0bc6244773becd9b38ac84c54939e",
      "blockNumber": "0x1f0b7b2",
      "gasUsed": "0x1310c",
      "effectiveGasPrice": "0xf42ce",
      "from": "0x31e88a9d6c3ee6c328344f6124e5b060faa620c9",
      "to": "0xbf227816afc11b5dd720d601ecc14fc5901c380b",
      "contractAddress": null,
      "l1BaseFeeScalar": "0x44d",
      "l1BlobBaseFee": "0x1",
      "l1BlobBaseFeeScalar": "0xa118b",
      "l1Fee": "0x59",
      "l1GasPrice": "0x9",
      "l1GasUsed": "0x6cd"
    }
  ],
  "libraries": [],
  "pending": [],
  "returns": {},
  "timestamp": 1760874053314,
  "chain": 84532,
  "commit": "1752f33"
}