{
  "transactions": [
    {
      "hash": "0xb84eb593d297797d5121adda4b786dd108a08b45881e673b9f780ce57ffdef5e",
      "transactionType": "CALL",
      "contractName": null,
      "contractAddress": "0xbf227816afc11b5dd720d601ecc14fc5901c380b",
      "function": "registerGame(uint256,string,address)",
      "arguments": [
        "4",
        "CoinFlip",
        "0x1C79F0Bbe94cE84a3052BCea50FEf817765d53B1"
      ],
      "transaction": {
        "from": "0x31e88a9d6c3ee6c328344f6124e5b060faa620c9",
        "to": "0xbf227816afc11b5dd720d601ecc14fc5901c380b",
        "gas": "0x1a557",
        "value": "0x0",
        "input": "0x4c912bb2000000000000000000000000000000000000000000000000000000000000000400000000000000000000000000000000000000000000000000000000000000600000000000000000000000001c79f0bbe94ce84a3052bcea50fef817765d53b10000000000000000000000000000000000000000000000000000000000000008436f696e466c6970000000000000000000000000000000000000000000000000",
        "nonce": "0xe",
        "chainId": "0x14a34"
      },
      "additionalContracts": [],
      "isFixedGasLimit": false
    }
  ],
  "receipts": [
    {
      "status": "0x1",
      "cumulativeGasUsed": "0x16f2a0",
      "logs": [
        {
          "address": "0xbf227816afc11b5dd720d601ecc14fc5901c380b",
          "topics": [
            "0x2f40410fa8647f03b48153ec0162afdedcea2229fd2322bf132f0a1d75701c1a",
            "0x0000000000000000000000000000000000000000000000000000000000000004",
            "0x0000000000000000000000001c79f0bbe94ce84a3052bcea50fef817765d53b1"
          ],
          "data": "0x000000000000000000000000000000000000000000000000000000000000004000000000000000000000000000000000000000000000000000000000000000010000000000000000000000000000000000000000000000000000000000000008436f696e466c6970000000000000000000000000000000000000000000000000",
          "blockHash": "0x75fc651810cbe4c5f5c3b2867429f8555c1cb0da89971fbeea5a766603570e8a",
          "blockNumber": "0x1f1f151",
          "blockTimestamp": "0x68f74182",
          "transactionHash": "0xb84eb593d297797d5121adda4b786dd108a08b45881e673b9f780ce57ffdef5e",
          "transactionIndex": "0x5",
          "logIndex": "0x8",
          "removed": false
        }
      ],
      "logsBloom": "0x00000000000000100000000000000000000000000000000000000000000001000000000000100000000000000000000010000000000000000000000000000000000000000000000000000000000000000000000004000000000000000000000008000000000000000000000000000000000000000000000000000000000000000000000000000000000000000000000000000000000000000200000000000000000000000000000000000000000000000000000000000000002000000200000000000000000000020100000000000000000000008000000000000000000000000000000000000000000000000000000000000000000000000000000000000000",
      "type": "0x2",
      "transactionHash": "0xb84eb593d297797d5121adda4b786dd108a08b45881e673b9f780ce57ffdef5e",
      "transactionIndex": "0x5",
      "blockHash": "0x75fc651810cbe4c5f5c3b2867429f8555c1cb0da89971fbeea5a766603570e8a",
      "blockNumber": "0x1f1f151",
      "gasUsed": "0x1310c",
      "effectiveGasPrice": "0xf4282",
      "from": "0x31e88a9d6c3ee6c328344f6124e5b060faa620c9",
      "to": "0xbf227816afc11b5dd720d601ecc14fc5901c380b",
      "contractAddress": null,
      "l1BaseFeeScalar": "0x44d",
      "l1BlobBaseFee": "0x1",
      "l1BlobBaseFeeScalar": "0xa118b",
      "l1Fee": "0x5a",
      "l1GasPrice": "0xa",
      "l1GasUsed": "0x6cd"
    }
  ],
  "libraries": [],
  "pending": [],
  "returns": {},
  "timestamp": 1761034626167,
  "chain": 84532,
  "commit": "c7014ec"
}