{
  "transactions": [
    {
      "hash": "0x89ababc20581882b05b4abb89b0dcaf913804991aa623bfe926c1ef142b81061",
      "transactionType": "CALL",
      "contractName": null,
      "contractAddress": "0x9bab7f308accae41eaf3abfeeb58a16804632a3a",
      "function": "registerGame(uint256,string,address)",
      "arguments": [
        "1",
        "Degenshoot",
        "0x1C79F0Bbe94cE84a3052BCea50FEf817765d53B1"
      ],
      "transaction": {
        "from": "0x1c79f0bbe94ce84a3052bcea50fef817765d53b1",
        "to": "0x9bab7f308accae41eaf3abfeeb58a16804632a3a",
        "gas": "0x1a579",
        "value": "0x0",
        "input": "0x4c912bb2000000000000000000000000000000000000000000000000000000000000000100000000000000000000000000000000000000000000000000000000000000600000000000000000000000001c79f0bbe94ce84a3052bcea50fef817765d53b1000000000000000000000000000000000000000000000000000000000000000a446567656e73686f6f7400000000000000000000000000000000000000000000",
        "nonce": "0xc7",
        "chainId": "0x14a34"
      },
      "additionalContracts": [],
      "isFixedGasLimit": false
    },
    {
      "hash": "0xcf6a0aaf6d5734a08171adf73197cf55e021d83007fb2d8840980fdca4d63b99",
      "transactionType": "CALL",
      "contractName": null,
      "contractAddress": "0x9bab7f308accae41eaf3abfeeb58a16804632a3a",
      "function": "setGameRateLimit(uint256,uint256)",
      "arguments": [
        "1",
        "500"
      ],
      "transaction": {
        "from": "0x1c79f0bbe94ce84a3052bcea50fef817765d53b1",
        "to": "0x9bab7f308accae41eaf3abfeeb58a16804632a3a",
        "gas": "0x125e6",
        "value": "0x0",
        "input": "0x07d6e109000000000000000000000000000000000000000000000000000000000000000100000000000000000000000000000000000000000000000000000000000001f4",
        "nonce": "0xc8",
        "chainId": "0x14a34"
      },
      "additionalContracts": [],
      "isFixedGasLimit": false
    },
    {
      "hash": "0x4b34fbdd48a834363566013610c11cac85d5132fb38e545ac592c7ffa8ff9bce",
      "transactionType": "CALL",
      "contractName": null,
      "contractAddress": "0x9bab7f308accae41eaf3abfeeb58a16804632a3a",
      "function": "registerGame(uint256,string,address)",
      "arguments": [
        "2",
        "CoinFlip",
        "0x1C79F0Bbe94cE84a3052BCea50FEf817765d53B1"
      ],
      "transaction": {
        "from": "0x1c79f0bbe94ce84a3052bcea50fef817765d53b1",
        "to": "0x9bab7f308accae41eaf3abfeeb58a16804632a3a",
        "gas": "0x1a557",
        "value": "0x0",
        "input": "0x4c912bb2000000000000000000000000000000000000000000000000000000000000000200000000000000000000000000000000000000000000000000000000000000600000000000000000000000001c79f0bbe94ce84a3052bcea50fef817765d53b10000000000000000000000000000000000000000000000000000000000000008436f696e466c6970000000000000000000000000000000000000000000000000",
        "nonce": "0xc9",
        "chainId": "0x14a34"
      },
      "additionalContracts": [],
      "isFixedGasLimit": false
    },
    {
      "hash": "0x316fcbb8c7667fee68b2030a607c9e44d9459f9225fbfa29a0a27888e90b16db",
      "transactionType": "CALL",
      "contractName": null,
      "contractAddress": "0x9bab7f308accae41eaf3abfeeb58a16804632a3a",
      "function": "setGameRateLimit(uint256,uint256)",
      "arguments": [
        "2",
        "500"
      ],
      "transaction": {
        "from": "0x1c79f0bbe94ce84a3052bcea50fef817765d53b1",
        "to": "0x9bab7f308accae41eaf3abfeeb58a16804632a3a",
        "gas": "0x125e6",
        "value": "0x0",
        "input": "0x07d6e109000000000000000000000000000000000000000000000000000000000000000200000000000000000000000000000000000000000000000000000000000001f4",
        "nonce": "0xca",
        "chainId": "0x14a34"
      },
      "additionalContracts": [],
      "isFixedGasLimit": false
    },
    {
      "hash": "0x356d32be4553cb8e46d9680e4e2b583c97c903afc8384006992dcaa586865bdf",
      "transactionType": "CALL",
      "contractName": null,
      "contractAddress": "0x9bab7f308accae41eaf3abfeeb58a16804632a3a",
      "function": "registerGame(uint256,string,address)",
      "arguments": [
        "99",
        "mallware",
        "0x31E88A9D6c3EE6c328344f6124E5B060FaA620C9"
      ],
      "transaction": {
        "from": "0x1c79f0bbe94ce84a3052bcea50fef817765d53b1",
        "to": "0x9bab7f308accae41eaf3abfeeb58a16804632a3a",
        "gas": "0x1a557",
        "value": "0x0",
        "input": "0x4c912bb20000000000000000000000000000000000000000000000000000000000000063000000000000000000000000000000000000000000000000000000000000006000000000000000000000000031e88a9d6c3ee6c328344f6124e5b060faa620c900000000000000000000000000000000000000000000000000000000000000086d616c6c77617265000000000000000000000000000000000000000000000000",
        "nonce": "0xcb",
        "chainId": "0x14a34"
      },
      "additionalContracts": [],
      "isFixedGasLimit": false
    },
    {
      "hash": "0x40a4ca9e822ebeb56c9dddf13799de454a5b9f7171e84fe499fc734ecc3adc22",
      "transactionType": "CALL",
      "contractName": null,
      "contractAddress": "0x9bab7f308accae41eaf3abfeeb58a16804632a3a",
      "function": "setGameRateLimit(uint256,uint256)",
      "arguments": [
        "99",
        "500"
      ],
      "transaction": {
        "from": "0x1c79f0bbe94ce84a3052bcea50fef817765d53b1",
        "to": "0x9bab7f308accae41eaf3abfeeb58a16804632a3a",
        "gas": "0x125e6",
        "value": "0x0",
        "input": "0x07d6e109000000000000000000000000000000000000000000000000000000000000006300000000000000000000000000000000000000000000000000000000000001f4",
        "nonce": "0xcc",
        "chainId": "0x14a34"
      },
      "additionalContracts": [],
      "isFixedGasLimit": false
    }
  ],
  "receipts": [
    {
      "status": "0x1",
      "cumulativeGasUsed": "0xe0ff91",
      "logs": [
        {
          "address": "0x9bab7f308accae41eaf3abfeeb58a16804632a3a",
          "topics": [
            "0x2f40410fa8647f03b48153ec0162afdedcea2229fd2322bf132f0a1d75701c1a",
            "0x0000000000000000000000000000000000000000000000000000000000000001",
            "0x0000000000000000000000001c79f0bbe94ce84a3052bcea50fef817765d53b1"
          ],
          "data": "0x00000000000000000000000000000000000000000000000000000000000000400000000000000000000000000000000000000000000000000000000000000001000000000000000000000000000000000000000000000000000000000000000a446567656e73686f6f7400000000000000000000000000000000000000000000",
          "blockHash": "0x2df3f33b6c042a9bf43b490a8678c8078fe5661ff92146cabcf907884e973dfb",
          "blockNumber": "0x1f2ad85",
          "blockTimestamp": "0x68f8b9ea",
          "transactionHash": "0x89ababc20581882b05b4abb89b0dcaf913804991aa623bfe926c1ef142b81061",
          "transactionIndex": "0x25",
          "logIndex": "0xdb",
          "removed": false
        }
      ],
      "logsBloom": "0x00000000000000000000000000000000000000000000000000000000000001000000000000100000000000000000000010000000000000000000000000040000000000000000000000000000000000000000000000040000000000000000000000000000008000000000000000000000000000008000000000000000000000000000000000000000000000000000000000000000000000000200000000000000000000000000000000000000000000000000000000000000000000000200000000000000000000000100000000040000000000000000000000000000000040000000000000000000000000000000000000000000000000000000000000000000",
      "type": "0x2",
      "transactionHash": "0x89ababc20581882b05b4abb89b0dcaf913804991aa623bfe926c1ef142b81061",
      "transactionIndex": "0x25",
      "blockHash": "0x2df3f33b6c042a9bf43b490a8678c8078fe5661ff92146cabcf907884e973dfb",
      "blockNumber": "0x1f2ad85",
      "gasUsed": "0x13124",
      "effectiveGasPrice": "0xe5ba6",
      "from": "0x1c79f0bbe94ce84a3052bcea50fef817765d53b1",
      "to": "0x9bab7f308accae41eaf3abfeeb58a16804632a3a",
      "contractAddress": null,
      "l1BaseFeeScalar": "0x44d",
      "l1BlobBaseFee": "0x1",
      "l1BlobBaseFeeScalar": "0xa118b",
      "l1Fee": "0x59",
      "l1GasPrice": "0x9",
      "l1GasUsed": "0x6da"
    },
    {
      "status": "0x1",
      "cumulativeGasUsed": "0xe1d459",
      "logs": [
        {
          "address": "0x9bab7f308accae41eaf3abfeeb58a16804632a3a",
          "topics": [
            "0x10300f5caf1bc32e911cc2741be9f3dd345bc7ec34bee7cc7d8482ece912e639",
            "0x0000000000000000000000000000000000000000000000000000000000000001"
          ],
          "data": "0x00000000000000000000000000000000000000000000000000000000000001f4",
          "blockHash": "0x2df3f33b6c042a9bf43b490a8678c8078fe5661ff92146cabcf907884e973dfb",
          "blockNumber": "0x1f2ad85",
          "blockTimestamp": "0x68f8b9ea",
          "transactionHash": "0xcf6a0aaf6d5734a08171adf73197cf55e021d83007fb2d8840980fdca4d63b99",
          "transactionIndex": "0x26",
          "logIndex": "0xdc",
          "removed": false
        }
      ],
      "logsBloom": "0x00000000000000000000000000000000000000000000400000000000000000000000000002000000000000000000000000000000000000000000000000040000000000000000000000000000000000000000000000040000000000000000000000000000008000000000000000000000000000008000000000000000000000000000000000000000000000000000000000000000000000000000000000000000000000000000000000000000000400000000000000000000000000000000000000000000000000000000000000040000000000000000000000000000000040000000000000000000000000000000000000000000000000000000000000000000",
      "type": "0x2",
      "transactionHash": "0xcf6a0aaf6d5734a08171adf73197cf55e021d83007fb2d8840980fdca4d63b99",
      "transactionIndex": "0x26",
      "blockHash": "0x2df3f33b6c042a9bf43b490a8678c8078fe5661ff92146cabcf907884e973dfb",
      "blockNumber": "0x1f2ad85",
      "gasUsed": "0xd4c8",
      "effectiveGasPrice": "0xe5ba6",
      "from": "0x1c79f0bbe94ce84a3052bcea50fef817765d53b1",
      "to": "0x9bab7f308accae41eaf3abfeeb58a16804632a3a",
      "contractAddress": null,
      "l1BaseFeeScalar": "0x44d",
      "l1BlobBaseFee": "0x1",
      "l1BlobBaseFeeScalar": "0xa118b",
      "l1Fee": "0x51",
      "l1GasPrice": "0x9",
      "l1GasUsed": "0x640"
    },
    {
      "status": "0x1",
      "cumulativeGasUsed": "0xe30565",
      "logs": [
        {
          "address": "0x9bab7f308accae41eaf3abfeeb58a16804632a3a",
          "topics": [
            "0x2f40410fa8647f03b48153ec0162afdedcea2229fd2322bf132f0a1d75701c1a",
            "0x0000000000000000000000000000000000000000000000000000000000000002",
            "0x0000000000000000000000001c79f0bbe94ce84a3052bcea50fef817765d53b1"
          ],
          "data": "0x000000000000000000000000000000000000000000000000000000000000004000000000000000000000000000000000000000000000000000000000000000010000000000000000000000000000000000000000000000000000000000000008436f696e466c6970000000000000000000000000000000000000000000000000",
          "blockHash": "0x2df3f33b6c042a9bf43b490a8678c8078fe5661ff92146cabcf907884e973dfb",
          "blockNumber": "0x1f2ad85",
          "blockTimestamp": "0x68f8b9ea",
          "transactionHash": "0x4b34fbdd48a834363566013610c11cac85d5132fb38e545ac592c7ffa8ff9bce",
          "transactionIndex": "0x27",
          "logIndex": "0xdd",
          "removed": false
        }
      ],
      "logsBloom": "0x04000000000000000000000000000000000000000000000000000000000001000000000000100000000000000000000010000000000000000000000000000000000000000000000000000000000000000000000000000000000000000000000000000000008000000000000000000000000000008000000000000000000000000000000000000000000000000000000000000000000000000200000000000000000000000000000000000100000000000000000000000000000000000200000000000000000000000100000000040000000000000000000000000000000000000000000000000000000000000000000000000000008000000000000000000000",
      "type": "0x2",
      "transactionHash": "0x4b34fbdd48a834363566013610c11cac85d5132fb38e545ac592c7ffa8ff9bce",
      "transactionIndex": "0x27",
      "blockHash": "0x2df3f33b6c042a9bf43b490a8678c8078fe5661ff92146cabcf907884e973dfb",
      "blockNumber": "0x1f2ad85",
      "gasUsed": "0x1310c",
      "effectiveGasPrice": "0xe5ba6",
      "from": "0x1c79f0bbe94ce84a3052bcea50fef817765d53b1",
      "to": "0x9bab7f308accae41eaf3abfeeb58a16804632a3a",
      "contractAddress": null,
      "l1BaseFeeScalar": "0x44d",
      "l1BlobBaseFee": "0x1",
      "l1BlobBaseFeeScalar": "0xa118b",
      "l1Fee": "0x59",
      "l1GasPrice": "0x9",
      "l1GasUsed": "0x6da"
    },
    {
      "status": "0x1",
      "cumulativeGasUsed": "0xe3da2d",
      "logs": [
        {
          "address": "0x9bab7f308accae41eaf3abfeeb58a16804632a3a",
          "topics": [
            "0x10300f5caf1bc32e911cc2741be9f3dd345bc7ec34bee7cc7d8482ece912e639",
            "0x0000000000000000000000000000000000000000000000000000000000000002"
          ],
          "data": "0x00000000000000000000000000000000000000000000000000000000000001f4",
          "blockHash": "0x2df3f33b6c042a9bf43b490a8678c8078fe5661ff92146cabcf907884e973dfb",
          "blockNumber": "0x1f2ad85",
          "blockTimestamp": "0x68f8b9ea",
          "transactionHash": "0x316fcbb8c7667fee68b2030a607c9e44d9459f9225fbfa29a0a27888e90b16db",
          "transactionIndex": "0x28",
          "logIndex": "0xde",
          "removed": false
        }
      ],
      "logsBloom": "0x04000000000000000000000000000000000000000000400000000000000000000000000002000000000000000000000000000000000000000000000000000000000000000000000000000000000000000000000000000000000000000000000000000000008000000000000000000000000000008000000000000000000000000000000000000000000000000000000000000000000000000000000000000000000000000000000000000100000400000000000000000000000000000000000000000000000000000000000000040000000000000000000000000000000000000000000000000000000000000000000000000000008000000000000000000000",
      "type": "0x2",
      "transactionHash": "0x316fcbb8c7667fee68b2030a607c9e44d9459f9225fbfa29a0a27888e90b16db",
      "transactionIndex": "0x28",
      "blockHash": "0x2df3f33b6c042a9bf43b490a8678c8078fe5661ff92146cabcf907884e973dfb",
      "blockNumber": "0x1f2ad85",
      "gasUsed": "0xd4c8",
      "effectiveGasPrice": "0xe5ba6",
      "from": "0x1c79f0bbe94ce84a3052bcea50fef817765d53b1",
      "to": "0x9bab7f308accae41eaf3abfeeb58a16804632a3a",
      "contractAddress": null,
      "l1BaseFeeScalar": "0x44d",
      "l1BlobBaseFee": "0x1",
      "l1BlobBaseFeeScalar": "0xa118b",
      "l1Fee": "0x51",
      "l1GasPrice": "0x9",
      "l1GasUsed": "0x640"
    },
    {
      "status": "0x1",
      "cumulativeGasUsed": "0xe50b39",
      "logs": [
        {
          "address": "0x9bab7f308accae41eaf3abfeeb58a16804632a3a",
          "topics": [
            "0x2f40410fa8647f03b48153ec0162afdedcea2229fd2322bf132f0a1d75701c1a",
            "0x0000000000000000000000000000000000000000000000000000000000000063",
            "0x00000000000000000000000031e88a9d6c3ee6c328344f6124e5b060faa620c9"
          ],
          "data": "0x0000000000000000000000000000000000000000000000000000000000000040000000000000000000000000000000000000000000000000000000000000000100000000000000000000000000000000000000000000000000000000000000086d616c6c77617265000000000000000000000000000000000000000000000000",
          "blockHash": "0x2df3f33b6c042a9bf43b490a8678c8078fe5661ff92146cabcf907884e973dfb",
          "blockNumber": "0x1f2ad85",
          "blockTimestamp": "0x68f8b9ea",
          "transactionHash": "0x356d32be4553cb8e46d9680e4e2b583c97c903afc8384006992dcaa586865bdf",
          "transactionIndex": "0x29",
          "logIndex": "0xdf",
          "removed": false
        }
      ],
      "logsBloom": "0x00000000000000000001000000000000000000000000000000000000200001000000000000100000000000000000000000800000000000000000000000000000000000000000000000000000000000000000000000000000000000000000000000000000008000000000000000000004000000008000000000000000000000000000000000000000000000000000000000000000000000000000000000000000000000000000000000000000000000000000000000000000800000000200000000000000000000000000000000040000000000000000000000000000000000000000000000000000000000000000000000002000000000000000000000000000",
      "type": "0x2",
      "transactionHash": "0x356d32be4553cb8e46d9680e4e2b583c97c903afc8384006992dcaa586865bdf",
      "transactionIndex": "0x29",
      "blockHash": "0x2df3f33b6c042a9bf43b490a8678c8078fe5661ff92146cabcf907884e973dfb",
      "blockNumber": "0x1f2ad85",
      "gasUsed": "0x1310c",
      "effectiveGasPrice": "0xe5ba6",
      "from": "0x1c79f0bbe94ce84a3052bcea50fef817765d53b1",
      "to": "0x9bab7f308accae41eaf3abfeeb58a16804632a3a",
      "contractAddress": null,
      "l1BaseFeeScalar": "0x44d",
      "l1BlobBaseFee": "0x1",
      "l1BlobBaseFeeScalar": "0xa118b",
      "l1Fee": "0x59",
      "l1GasPrice": "0x9",
      "l1GasUsed": "0x6da"
    },
    {
      "status": "0x1",
      "cumulativeGasUsed": "0xe5e001",
      "logs": [
        {
          "address": "0x9bab7f308accae41eaf3abfeeb58a16804632a3a",
          "topics": [
            "0x10300f5caf1bc32e911cc2741be9f3dd345bc7ec34bee7cc7d8482ece912e639",
            "0x0000000000000000000000000000000000000000000000000000000000000063"
          ],
          "data": "0x00000000000000000000000000000000000000000000000000000000000001f4",
          "blockHash": "0x2df3f33b6c042a9bf43b490a8678c8078fe5661ff92146cabcf907884e973dfb",
          "blockNumber": "0x1f2ad85",
          "blockTimestamp": "0x68f8b9ea",
          "transactionHash": "0x40a4ca9e822ebeb56c9dddf13799de454a5b9f7171e84fe499fc734ecc3adc22",
          "transactionIndex": "0x2a",
          "logIndex": "0xe0",
          "removed": false
        }
      ],
      "logsBloom": "0x00000000000000000000000000000000000000000000400000000000000000000000000002000000000000000000000000000000000000000000000000000000000000000000000000000000000000000000000000000000000000000000000000000000008000000000000000000004000000008000000000000000000000000000000000000000000000000000000000000000000000000000000000000000000000000000000000000000000400000000000000000000800000000000000000000000000000000000000000040000000000000000000000000000000000000000000000000000000000000000000000002000000000000000000000000000",
      "type": "0x2",
      "transactionHash": "0x40a4ca9e822ebeb56c9dddf13799de454a5b9f7171e84fe499fc734ecc3adc22",
      "transactionIndex": "0x2a",
      "blockHash": "0x2df3f33b6c042a9bf43b490a8678c8078fe5661ff92146cabcf907884e973dfb",
      "blockNumber": "0x1f2ad85",
      "gasUsed": "0xd4c8",
      "effectiveGasPrice": "0xe5ba6",
      "from": "0x1c79f0bbe94ce84a3052bcea50fef817765d53b1",
      "to": "0x9bab7f308accae41eaf3abfeeb58a16804632a3a",
      "contractAddress": null,
      "l1BaseFeeScalar": "0x44d",
      "l1BlobBaseFee": "0x1",
      "l1BlobBaseFeeScalar": "0xa118b",
      "l1Fee": "0x51",
      "l1GasPrice": "0x9",
      "l1GasUsed": "0x640"
    }
  ],
  "libraries": [],
  "pending": [],
  "returns": {},
  "timestamp": 1761130987013,
  "chain": 84532,
  "commit": "f8d3c65"
}