{
  "transactions": [
    {
      "hash": "0x0711639925f485733c153f46fe2779f2fa7d6e7fd013310a50a70a347f138265",
      "transactionType": "CALL",
      "contractName": null,
      "contractAddress": "0x8b6a11fa9e6ab440eb8e141539d8953a67c89dad",
      "function": "registerGame(uint256,string,address)",
      "arguments": [
        "1",
        "Degenshoot",
        "0x1C79F0Bbe94cE84a3052BCea50FEf817765d53B1"
      ],
      "transaction": {
        "from": "0x1c79f0bbe94ce84a3052bcea50fef817765d53b1",
        "to": "0x8b6a11fa9e6ab440eb8e141539d8953a67c89dad",
        "gas": "0x1a579",
        "value": "0x0",
        "input": "0x4c912bb2000000000000000000000000000000000000000000000000000000000000000100000000000000000000000000000000000000000000000000000000000000600000000000000000000000001c79f0bbe94ce84a3052bcea50fef817765d53b1000000000000000000000000000000000000000000000000000000000000000a446567656e73686f6f7400000000000000000000000000000000000000000000",
        "nonce": "0xb3",
        "chainId": "0x14a34"
      },
      "additionalContracts": [],
      "isFixedGasLimit": false
    },
    {
      "hash": "0x265fdb6ee1b58d5b5184e87e9d99802b40da3ca531706699356c5cd1ed08ceb2",
      "transactionType": "CALL",
      "contractName": null,
      "contractAddress": "0x8b6a11fa9e6ab440eb8e141539d8953a67c89dad",
      "function": "setGameRateLimit(uint256,uint256)",
      "arguments": [
        "1",
        "500"
      ],
      "transaction": {
        "from": "0x1c79f0bbe94ce84a3052bcea50fef817765d53b1",
        "to": "0x8b6a11fa9e6ab440eb8e141539d8953a67c89dad",
        "gas": "0x125e6",
        "value": "0x0",
        "input": "0x07d6e109000000000000000000000000000000000000000000000000000000000000000100000000000000000000000000000000000000000000000000000000000001f4",
        "nonce": "0xb4",
        "chainId": "0x14a34"
      },
      "additionalContracts": [],
      "isFixedGasLimit": false
    },
    {
      "hash": "0x565d23beb23e45f090d57b5a1e922e57711e96448948ed58c4920e6942c58317",
      "transactionType": "CALL",
      "contractName": null,
      "contractAddress": "0x8b6a11fa9e6ab440eb8e141539d8953a67c89dad",
      "function": "registerGame(uint256,string,address)",
      "arguments": [
        "4",
        "CoinFlip",
        "0x1C79F0Bbe94cE84a3052BCea50FEf817765d53B1"
      ],
      "transaction": {
        "from": "0x1c79f0bbe94ce84a3052bcea50fef817765d53b1",
        "to": "0x8b6a11fa9e6ab440eb8e141539d8953a67c89dad",
        "gas": "0x1a557",
        "value": "0x0",
        "input": "0x4c912bb2000000000000000000000000000000000000000000000000000000000000000400000000000000000000000000000000000000000000000000000000000000600000000000000000000000001c79f0bbe94ce84a3052bcea50fef817765d53b10000000000000000000000000000000000000000000000000000000000000008436f696e466c6970000000000000000000000000000000000000000000000000",
        "nonce": "0xb5",
        "chainId": "0x14a34"
      },
      "additionalContracts": [],
      "isFixedGasLimit": false
    },
    {
      "hash": "0x2fb95a5e6747ca0d2332757c0c48b29e59c58b13b237e5daa71187451a639ff8",
      "transactionType": "CALL",
      "contractName": null,
      "contractAddress": "0x8b6a11fa9e6ab440eb8e141539d8953a67c89dad",
      "function": "setGameRateLimit(uint256,uint256)",
      "arguments": [
        "4",
        "500"
      ],
      "transaction": {
        "from": "0x1c79f0bbe94ce84a3052bcea50fef817765d53b1",
        "to": "0x8b6a11fa9e6ab440eb8e141539d8953a67c89dad",
        "gas": "0x125e6",
        "value": "0x0",
        "input": "0x07d6e109000000000000000000000000000000000000000000000000000000000000000400000000000000000000000000000000000000000000000000000000000001f4",
        "nonce": "0xb6",
        "chainId": "0x14a34"
      },
      "additionalContracts": [],
      "isFixedGasLimit": false
    },
    {
      "hash": "0xfcb7666c1e4f38692790cc38d411bc683df3ad32e5325a4c6f1e9f8eb897a48a",
      "transactionType": "CALL",
      "contractName": null,
      "contractAddress": "0x8b6a11fa9e6ab440eb8e141539d8953a67c89dad",
      "function": "registerGame(uint256,string,address)",
      "arguments": [
        "99",
        "mallware",
        "0x31E88A9D6c3EE6c328344f6124E5B060FaA620C9"
      ],
      "transaction": {
        "from": "0x1c79f0bbe94ce84a3052bcea50fef817765d53b1",
        "to": "0x8b6a11fa9e6ab440eb8e141539d8953a67c89dad",
        "gas": "0x1a557",
        "value": "0x0",
        "input": "0x4c912bb20000000000000000000000000000000000000000000000000000000000000063000000000000000000000000000000000000000000000000000000000000006000000000000000000000000031e88a9d6c3ee6c328344f6124e5b060faa620c900000000000000000000000000000000000000000000000000000000000000086d616c6c77617265000000000000000000000000000000000000000000000000",
        "nonce": "0xb7",
        "chainId": "0x14a34"
      },
      "additionalContracts": [],
      "isFixedGasLimit": false
    },
    {
      "hash": "0x22271c9d538cb3897d1856743d7da491480e58caefb4562ae03f31bd03ab8563",
      "transactionType": "CALL",
      "contractName": null,
      "contractAddress": "0x8b6a11fa9e6ab440eb8e141539d8953a67c89dad",
      "function": "setGameRateLimit(uint256,uint256)",
      "arguments": [
        "99",
        "500"
      ],
      "transaction": {
        "from": "0x1c79f0bbe94ce84a3052bcea50fef817765d53b1",
        "to": "0x8b6a11fa9e6ab440eb8e141539d8953a67c89dad",
        "gas": "0x125e6",
        "value": "0x0",
        "input": "0x07d6e109000000000000000000000000000000000000000000000000000000000000006300000000000000000000000000000000000000000000000000000000000001f4",
        "nonce": "0xb8",
        "chainId": "0x14a34"
      },
      "additionalContracts": [],
      "isFixedGasLimit": false
    }
  ],
  "receipts": [
    {
      "status": "0x1",
      "cumulativeGasUsed": "0x811e52",
      "logs": [
        {
          "address": "0x8b6a11fa9e6ab440eb8e141539d8953a67c89dad",
          "topics": [
            "0x2f40410fa8647f03b48153ec0162afdedcea2229fd2322bf132f0a1d75701c1a",
            "0x0000000000000000000000000000000000000000000000000000000000000001",
            "0x0000000000000000000000001c79f0bbe94ce84a3052bcea50fef817765d53b1"
          ],
          "data": "0x00000000000000000000000000000000000000000000000000000000000000400000000000000000000000000000000000000000000000000000000000000001000000000000000000000000000000000000000000000000000000000000000a446567656e73686f6f7400000000000000000000000000000000000000000000",
          "blockHash": "0x76259ebcb6b7692efb2dc809876c0d76a5f3f110b577fe2a2742defad48f76f1",
          "blockNumber": "0x1f2a509",
          "blockTimestamp": "0x68f8a8f2",
          "transactionHash": "0x0711639925f485733c153f46fe2779f2fa7d6e7fd013310a50a70a347f138265",
          "transactionIndex": "0x13",
          "logIndex": "0x91",
          "removed": false
        }
      ],
      "logsBloom": "0x00000000000000000000000000000000000000000000000000000000000001000000000000100000000000000000000010000000000000000000000000040000000000000000000000000000000000000000000000040000000000000000000000000000080000000000000000000000000000000000000000800000000000000000000000000000000000000000000000000000000000000200000000000000000000000000000000000000000000000000000000000000000000000200000000000000000000000100000000000000000000000000000000000000000040000000000000000000000000000000000000000000000000000800000000000000",
      "type": "0x2",
      "transactionHash": "0x0711639925f485733c153f46fe2779f2fa7d6e7fd013310a50a70a347f138265",
      "transactionIndex": "0x13",
      "blockHash": "0x76259ebcb6b7692efb2dc809876c0d76a5f3f110b577fe2a2742defad48f76f1",
      "blockNumber": "0x1f2a509",
      "gasUsed": "0x13124",
      "effectiveGasPrice": "0x1f8",
      "from": "0x1c79f0bbe94ce84a3052bcea50fef817765d53b1",
      "to": "0x8b6a11fa9e6ab440eb8e141539d8953a67c89dad",
      "contractAddress": null,
      "l1BaseFeeScalar": "0x44d",
      "l1BlobBaseFee": "0x1",
      "l1BlobBaseFeeScalar": "0xa118b",
      "l1Fee": "0x5f",
      "l1GasPrice": "0xd",
      "l1GasUsed": "0x6bf"
    },
    {
      "status": "0x1",
      "cumulativeGasUsed": "0x81f31a",
      "logs": [
        {
          "address": "0x8b6a11fa9e6ab440eb8e141539d8953a67c89dad",
          "topics": [
            "0x10300f5caf1bc32e911cc2741be9f3dd345bc7ec34bee7cc7d8482ece912e639",
            "0x0000000000000000000000000000000000000000000000000000000000000001"
          ],
          "data": "0x00000000000000000000000000000000000000000000000000000000000001f4",
          "blockHash": "0x76259ebcb6b7692efb2dc809876c0d76a5f3f110b577fe2a2742defad48f76f1",
          "blockNumber": "0x1f2a509",
          "blockTimestamp": "0x68f8a8f2",
          "transactionHash": "0x265fdb6ee1b58d5b5184e87e9d99802b40da3ca531706699356c5cd1ed08ceb2",
          "transactionIndex": "0x14",
          "logIndex": "0x92",
          "removed": false
        }
      ],
      "logsBloom": "0x00000000000000000000000000000000000000000000400000000000000000000000000002000000000000000000000000000000000000000000000000040000000000000000000000000000000000000000000000040000000000000000000000000000080000000000000000000000000000000000000000800000000000000000000000000000000000000000000000000000000000000000000000000000000000000000000000000000000400000000000000000000000000000000000000000000000000000000000000000000000000000000000000000000000040000000000000000000000000000000000000000000000000000800000000000000",
      "type": "0x2",
      "transactionHash": "0x265fdb6ee1b58d5b5184e87e9d99802b40da3ca531706699356c5cd1ed08ceb2",
      "transactionIndex": "0x14",
      "blockHash": "0x76259ebcb6b7692efb2dc809876c0d76a5f3f110b577fe2a2742defad48f76f1",
      "blockNumber": "0x1f2a509",
      "gasUsed": "0xd4c8",
      "effectiveGasPrice": "0x1f8",
      "from": "0x1c79f0bbe94ce84a3052bcea50fef817765d53b1",
      "to": "0x8b6a11fa9e6ab440eb8e141539d8953a67c89dad",
      "contractAddress": null,
      "l1BaseFeeScalar": "0x44d",
      "l1BlobBaseFee": "0x1",
      "l1BlobBaseFeeScalar": "0xa118b",
      "l1Fee": "0x58",
      "l1GasPrice": "0xd",
      "l1GasUsed": "0x640"
    },
    {
      "status": "0x1",
      "cumulativeGasUsed": "0x832426",
      "logs": [
        {
          "address": "0x8b6a11fa9e6ab440eb8e141539d8953a67c89dad",
          "topics": [
            "0x2f40410fa8647f03b48153ec0162afdedcea2229fd2322bf132f0a1d75701c1a",
            "0x0000000000000000000000000000000000000000000000000000000000000004",
            "0x0000000000000000000000001c79f0bbe94ce84a3052bcea50fef817765d53b1"
          ],
          "data": "0x000000000000000000000000000000000000000000000000000000000000004000000000000000000000000000000000000000000000000000000000000000010000000000000000000000000000000000000000000000000000000000000008436f696e466c6970000000000000000000000000000000000000000000000000",
          "blockHash": "0x76259ebcb6b7692efb2dc809876c0d76a5f3f110b577fe2a2742defad48f76f1",
          "blockNumber": "0x1f2a509",
          "blockTimestamp": "0x68f8a8f2",
          "transactionHash": "0x565d23beb23e45f090d57b5a1e922e57711e96448948ed58c4920e6942c58317",
          "transactionIndex": "0x15",
          "logIndex": "0x93",
          "removed": false
        }
      ],
      "logsBloom": "0x00000000000000000000000000000000000000000000000000000000000001000000000000100000000000000000000010000000000000000000000000000000000000000000000000000000000000000000000000000000000000000000000008000000080000000000000000000000000000000000000000800000000000000000000000000000000000000000000000000000000000000200000000000000000000000000000000000000000000000000000000000000002000000200000000000000000000000100000000000000000000008000000000000000000000000000000000000000000000000000000000000000000000000800000000000000",
      "type": "0x2",
      "transactionHash": "0x565d23beb23e45f090d57b5a1e922e57711e96448948ed58c4920e6942c58317",
      "transactionIndex": "0x15",
      "blockHash": "0x76259ebcb6b7692efb2dc809876c0d76a5f3f110b577fe2a2742defad48f76f1",
      "blockNumber": "0x1f2a509",
      "gasUsed": "0x1310c",
      "effectiveGasPrice": "0x1f8",
      "from": "0x1c79f0bbe94ce84a3052bcea50fef817765d53b1",
      "to": "0x8b6a11fa9e6ab440eb8e141539d8953a67c89dad",
      "contractAddress": null,
      "l1BaseFeeScalar": "0x44d",
      "l1BlobBaseFee": "0x1",
      "l1BlobBaseFeeScalar": "0xa118b",
      "l1Fee": "0x5f",
      "l1GasPrice": "0xd",
      "l1GasUsed": "0x6bf"
    },
    {
      "status": "0x1",
      "cumulativeGasUsed": "0x83f8ee",
      "logs": [
        {
          "address": "0x8b6a11fa9e6ab440eb8e141539d8953a67c89dad",
          "topics": [
            "0x10300f5caf1bc32e911cc2741be9f3dd345bc7ec34bee7cc7d8482ece912e639",
            "0x0000000000000000000000000000000000000000000000000000000000000004"
          ],
          "data": "0x00000000000000000000000000000000000000000000000000000000000001f4",
          "blockHash": "0x76259ebcb6b7692efb2dc809876c0d76a5f3f110b577fe2a2742defad48f76f1",
          "blockNumber": "0x1f2a509",
          "blockTimestamp": "0x68f8a8f2",
          "transactionHash": "0x2fb95a5e6747ca0d2332757c0c48b29e59c58b13b237e5daa71187451a639ff8",
          "transactionIndex": "0x16",
          "logIndex": "0x94",
          "removed": false
        }
      ],
      "logsBloom": "0x00000000000000000000000000000000000000000000400000000000000000000000000002000000000000000000000000000000000000000000000000000000000000000000000000000000000000000000000000000000000000000000000008000000080000000000000000000000000000000000000000800000000000000000000000000000000000000000000000000000000000000000000000000000000000000000000000000000000400000000000000000000002000000000000000000000000000000000000000000000000000008000000000000000000000000000000000000000000000000000000000000000000000000800000000000000",
      "type": "0x2",
      "transactionHash": "0x2fb95a5e6747ca0d2332757c0c48b29e59c58b13b237e5daa71187451a639ff8",
      "transactionIndex": "0x16",
      "blockHash": "0x76259ebcb6b7692efb2dc809876c0d76a5f3f110b577fe2a2742defad48f76f1",
      "blockNumber": "0x1f2a509",
      "gasUsed": "0xd4c8",
      "effectiveGasPrice": "0x1f8",
      "from": "0x1c79f0bbe94ce84a3052bcea50fef817765d53b1",
      "to": "0x8b6a11fa9e6ab440eb8e141539d8953a67c89dad",
      "contractAddress": null,
      "l1BaseFeeScalar": "0x44d",
      "l1BlobBaseFee": "0x1",
      "l1BlobBaseFeeScalar": "0xa118b",
      "l1Fee": "0x58",
      "l1GasPrice": "0xd",
      "l1GasUsed": "0x640"
    },
    {
      "status": "0x1",
      "cumulativeGasUsed": "0x8529fa",
      "logs": [
        {
          "address": "0x8b6a11fa9e6ab440eb8e141539d8953a67c89dad",
          "topics": [
            "0x2f40410fa8647f03b48153ec0162afdedcea2229fd2322bf132f0a1d75701c1a",
            "0x0000000000000000000000000000000000000000000000000000000000000063",
            "0x00000000000000000000000031e88a9d6c3ee6c328344f6124e5b060faa620c9"
          ],
          "data": "0x0000000000000000000000000000000000000000000000000000000000000040000000000000000000000000000000000000000000000000000000000000000100000000000000000000000000000000000000000000000000000000000000086d616c6c77617265000000000000000000000000000000000000000000000000",
          "blockHash": "0x76259ebcb6b7692efb2dc809876c0d76a5f3f110b577fe2a2742defad48f76f1",
          "blockNumber": "0x1f2a509",
          "blockTimestamp": "0x68f8a8f2",
          "transactionHash": "0xfcb7666c1e4f38692790cc38d411bc683df3ad32e5325a4c6f1e9f8eb897a48a",
          "transactionIndex": "0x17",
          "logIndex": "0x95",
          "removed": false
        }
      ],
      "logsBloom": "0x00000000000000000001000000000000000000000000000000000000200001000000000000100000000000000000000000800000000000000000000000000000000000000000000000000000000000000000000000000000000000000000000000000000080000000000000000000004000000000000000000800000000000000000000000000000000000000000000000000000000000000000000000000000000000000000000000000000000000000000000000000000800000000200000000000000000000000000000000000000000000000000000000000000000000000000000000000000000000000000000000002000000000000800000000000000",
      "type": "0x2",
      "transactionHash": "0xfcb7666c1e4f38692790cc38d411bc683df3ad32e5325a4c6f1e9f8eb897a48a",
      "transactionIndex": "0x17",
      "blockHash": "0x76259ebcb6b7692efb2dc809876c0d76a5f3f110b577fe2a2742defad48f76f1",
      "blockNumber": "0x1f2a509",
      "gasUsed": "0x1310c",
      "effectiveGasPrice": "0x1f8",
      "from": "0x1c79f0bbe94ce84a3052bcea50fef817765d53b1",
      "to": "0x8b6a11fa9e6ab440eb8e141539d8953a67c89dad",
      "contractAddress": null,
      "l1BaseFeeScalar": "0x44d",
      "l1BlobBaseFee": "0x1",
      "l1BlobBaseFeeScalar": "0xa118b",
      "l1Fee": "0x5f",
      "l1GasPrice": "0xd",
      "l1GasUsed": "0x6bf"
    },
    {
      "status": "0x1",
      "cumulativeGasUsed": "0x85fec2",
      "logs": [
        {
          "address": "0x8b6a11fa9e6ab440eb8e141539d8953a67c89dad",
          "topics": [
            "0x10300f5caf1bc32e911cc2741be9f3dd345bc7ec34bee7cc7d8482ece912e639",
            "0x0000000000000000000000000000000000000000000000000000000000000063"
          ],
          "data": "0x00000000000000000000000000000000000000000000000000000000000001f4",
          "blockHash": "0x76259ebcb6b7692efb2dc809876c0d76a5f3f110b577fe2a2742defad48f76f1",
          "blockNumber": "0x1f2a509",
          "blockTimestamp": "0x68f8a8f2",
          "transactionHash": "0x22271c9d538cb3897d1856743d7da491480e58caefb4562ae03f31bd03ab8563",
          "transactionIndex": "0x18",
          "logIndex": "0x96",
          "removed": false
        }
      ],
      "logsBloom": "0x00000000000000000000000000000000000000000000400000000000000000000000000002000000000000000000000000000000000000000000000000000000000000000000000000000000000000000000000000000000000000000000000000000000080000000000000000000004000000000000000000800000000000000000000000000000000000000000000000000000000000000000000000000000000000000000000000000000000400000000000000000000800000000000000000000000000000000000000000000000000000000000000000000000000000000000000000000000000000000000000000002000000000000800000000000000",
      "type": "0x2",
      "transactionHash": "0x22271c9d538cb3897d1856743d7da491480e58caefb4562ae03f31bd03ab8563",
      "transactionIndex": "0x18",
      "blockHash": "0x76259ebcb6b7692efb2dc809876c0d76a5f3f110b577fe2a2742defad48f76f1",
      "blockNumber": "0x1f2a509",
      "gasUsed": "0xd4c8",
      "effectiveGasPrice": "0x1f8",
      "from": "0x1c79f0bbe94ce84a3052bcea50fef817765d53b1",
      "to": "0x8b6a11fa9e6ab440eb8e141539d8953a67c89dad",
      "contractAddress": null,
      "l1BaseFeeScalar": "0x44d",
      "l1BlobBaseFee": "0x1",
      "l1BlobBaseFeeScalar": "0xa118b",
      "l1Fee": "0x58",
      "l1GasPrice": "0xd",
      "l1GasUsed": "0x640"
    }
  ],
  "libraries": [],
  "pending": [],
  "returns": {},
  "timestamp": 1761126643607,
  "chain": 84532,
  "commit": "f8d3c65"
}